:020000040800F2
:10000000100500204501000877100008371000088F
:1000100075100008DD0100085914000800000000F8
:100020000000000000000000000000007B1000083D
:100030001702000800000000791000087D10000879
:100040005F0100085F0100085F0100085F01000810
:100050005F0100085F0100085F0100085F01000800
:100060005F0100085F0100085F0100085F010008F0
:100070005F0100085F0100085F010008E10100085E
:100080005F0100085F0100085F0100085F010008D0
:100090005F0100085F0100085F0100085F010008C0
:1000A0005F0100085F0100085F0100085F010008B0
:1000B0005F0100085F0100085F0100085F010008A0
:1000C0005F0100085F0100085F0100085F01000890
:1000D0005F0100083D1400085F0100085F0100088F
:1000E0005F0100085F0100085F0100085F01000870
:1000F0005F0100085F0100085F0100085F01000860
:100100005F0100085F0100085F0100085F0100084F
:100110005F0100085F0100085F0100085F0100083F
:100120005F0100085F0100085F0100085F0100082F
:10013000DFF80CD000F040F800480047F516000842
:10014000100500200648804706480047FEE7FEE706
:10015000FEE7FEE7FEE7FEE7FEE7FEE7FEE7FEE777
:10016000DF10000831010008D2B201E000F8012BD5
:10017000491EFBD270470022F6E710B513460A4627
:1001800004461946FFF7F0FF204610BD30B50B4678
:10019000014600202022012409E021FA02F59D42B7
:1001A00005D303FA02F5491B04FA02F52844151E8B
:1001B000A2F10102F1DC30BD064C074D06E0E0681B
:1001C00040F0010394E8070098471034AC42F6D39E
:1001D000FFF7B2FF4817000868170008FEE70000A5
:1001E000014800F03DB800001400002030B590F840
:1001F00040500124AC40C56B6C6004686360436888
:10020000102B036803D099600068C26030BD9A600B
:100210000068C16030BD704710B590F82110002211
:10022000022905D00421816380F82020012010BD1F
:1002300001680B6823F00E030B6001680B6823F064
:1002400001030B6090F84030C46B012101FA03F305
:10025000636080F8211080F82020104610BD000057
:100260002DE9F05FC16B0A6801680B68046C4FF000
:10027000040808FA04F8844D844E854FDFF814C250
:10028000DFF81492DFF814A2DFF814B2DFF814E2FA
:1002900018EA020F65D05FEA437862D50A689206D1
:1002A00003D40A6822F004020A60DFF8F0814FF4F8
:1002B0008062016808F1140813011402414524D931
:1002C000A9420DD0B1420FD0B9421AD0614515D024
:1002D000494515D0514501D1120312E0594501D1CC
:1002E00004220EE0714501D140220AE06D4D143523
:1002F000A94206D06B4A2832914201D11A4600E049
:1003000022466749091F0A6029E0A94213D0B14279
:1003100015D0B94220D061451BD049451BD051456D
:1003200002D14FF4800217E0414502D14FF08062C4
:1003300012E0594501D104220EE0714501D140225D
:100340000AE0584D1435A94206D0564A2832914247
:1003500001D11A4600E022464B4908394A60C16A79
:1003600071E04FF0020808FA04F818EA020F70D0A2
:100370005FEA83786DD50A68920606D40A6822F08F
:100380000A020A60012180F82110DFF810814FF481
:100390000072016808F1140813011402414524D9C0
:1003A000A9420DD0B1420FD0B9421AD0614515D043
:1003B000494515D0514501D1120312E0594501D1EB
:1003C00002220EE0714501D120220AE0354D14359C
:1003D000A94206D0334A2832914201D11A4600E0A0
:1003E00022462F49091F0A6029E0A94213D0B142D1
:1003F00015D0B94220D061451BD049451BD051458D
:1004000002D14FF4001217E0414502D14FF00072C3
:1004100012E0594501D102220EE0714501D120229E
:100420000AE0204D1435A94206D01E4A28329142D6
:1004300001D11A4600E02246134908394A600021DA
:1004400080F82010816A00291CD0BDE8F05F0847C1
:10045000FFE70825A540154214D01A0712D50A68EF
:1004600022F00E020A6090F84020C36B012101FACD
:1004700002F25A60816380F82110002180F8201078
:10048000016BE0E7BDE8F09F080002401C0002405D
:100490003000024044000240580002406C0002401C
:1004A000080402401C04024030B560B11A4B0268D7
:1004B00014219A4209D2194B1344B3FBF1F189007C
:1004C000016417490AE0012030BD134B5B4213441D
:1004D000B3FBF1F1890001640F490839C1630221BE
:1004E00080F82110136843F6F0718B43F0E9011492
:1004F0002143D0E902452C43214304692143446947
:100500002143846921431943116000214163012281
:1005100042770177084630BD08040240F8FFFDBF6E
:100520000000024070B5044690F820000025012824
:100530000CD0012084F8200094F821600020012EC6
:1005400006D084F820000225284670BD022070BD28
:10055000022684F82160A0632068066826F0010660
:1005600006602046FFF742FEE06A00282068016826
:1005700002D041F00E0106E021F004010160206884
:10058000016841F00A0101602068016841F0010141
:100590000160D9E72DE9F84FDFF8C8910024A9F1EF
:1005A000040B23460F2709F1040AABF1040ED1E036
:1005B0000125A54006EA0502AA4276D1DFF8A8C1C6
:1005C0004E68A6EB0C0866452BD00DDC032E34D00C
:1005D00005DC36B3012E19D0022E2FD11BE0112ECF
:1005E00016D0122E2AD119E0B8F5881F19D006DCD2
:1005F000B8F5803F15D0B8F5801F1FD111E0B8F5D0
:10060000001F0ED0B8F5041F18D10AE0CB6815E022
:10061000CB681B1D12E0CB6808330FE0CB680C33AE
:100620000CE08B682BB1012B4FF0080303D0456120
:1006300004E0042302E0056100E00023FF2A01D862
:10064000064601E000F104064FEA840501D9A5F150
:100650002005D6F8008007FA05FC28EA0C0803FA02
:1006600005F548EA0508C6F800804D68ED0070D52C
:100670003E4DAE6946F00106AE61AD6924F0030659
:1006800005F0010500953A4D06EB050CDCF8085025
:10069000A607360F07FA06F825EA0805DFF8D48022
:1006A000404503D14FF0000825E052E0DFF8C88054
:1006B000404502D14FF001081DE0DFF8C080404501
:1006C00002D14FF0020816E0DFF8B480404502D1B5
:1006D0004FF003080FE0DFF8AC80404502D14FF047
:1006E000040808E0DFF8A080404502D14FF005087B
:1006F00001E04FF0060808FA06F848EA0508CCF8C9
:1007000008804D68D9F80060ED024D4601D51643CA
:1007100000E096432E604D68DAF80060AD02554661
:1007200001D5164300E096432E604D68DBF800606B
:10073000AD035D4601D5164300E096432E604D683B
:10074000DEF80060ED03754601D5164300E09643E0
:100750002E60641C0A681646E2407FF429AFBDE8AB
:10076000F88F000008040140000011100010024042
:100770000000014000080140000C01400010014051
:100780000014014000180140001C0140014880682D
:100790007047000000000020024881680278114480
:1007A0008160704700000020074810B5016841F0E3
:1007B00010010160032000F075F80F2000F006F82A
:1007C00000F024F8002010BD0020024070B50D4D4F
:1007D00004464FF47A712878B1FBF0F00A490968B1
:1007E000B1FBF0F000F0DCFA48B9102C07D200227F
:1007F0002146501E00F036F800206C6070BD0120CC
:1008000070BD0000000000200C0000200C4808B55E
:10081000816941F001018161816901F0010100916B
:10082000C16941F08051C161C06900F08050009001
:100830000448416821F0E06141F00071416008BD69
:100840000010024000000140002809DB00F01F02F8
:10085000012191404009800000F1E020C0F8001122
:1008600070470000F0B40E4B1B680C46C3F3022324
:10087000C3F10705042D00D90425191D072901D24C
:10088000002300E0DB1E012606FA05F1491E214087
:1008900099409E40761E16403143F0BC00F0EEBDFC
:1008A0000CED00E0064900F0070208684FF6FF0370
:1008B000184040EA0220034A1043086070470000D5
:1008C0000CED00E00000FA052DE9F0470F460500A9
:1008D00061D0434E306800F00700B84209D230685A
:1008E00020F0070038433060306800F00700B8425D
:1008F00051D128683B4C810712D5400703D5606869
:1009000040F4E06060602878000703D5606840F438
:10091000605060606068A96820F0F0000843606083
:100920002878C00728D06868012810D021680228DC
:1009300010D0890700292EDA616821F003010143F4
:100940006160FFF723FF804641F288390DE021689E
:100950008903EFE78901EDE7FFF718FFA0EB080136
:10096000494502D90320BDE8F0876068696800F056
:100970000C00B0EB810FEFD1306800F00700B842F7
:100980000BD9306820F0070038433060306800F041
:100990000700B84201D00120E5E72878400705D5D7
:1009A0006068E96820F4E060084360602878000728
:1009B00006D56068296920F4605040EAC100606093
:1009C00000F038F86168084AC1F30311515CC8406F
:1009D0000649086006480068FFF7F8FE0020C2E7F5
:1009E00000200240001002402E1700080C000020DA
:1009F000040000200448054900684968044AC1F31E
:100A00000221515CC84070470C00002000100240D9
:100A10003E1700080448054900684968044AC1F3C4
:100A2000C221515CC84070470C00002000100240F9
:100A30003E1700080E4A51680E4801F00C03042BC3
:100A400011D0082B0FD10C48C1F38343C903C05CFC
:100A50000AD55168084AC1F34041921E515C054ACB
:100A60005043B0FBF1F07047044948437047000021
:100A70000010024000127A001E17000800093D0015
:100A80002DE9F84F040070D02078C04DC00749D040
:100A90006868C0F38100012807D06868C0F381004E
:100AA000022809D16868C00306D52868800339D5B3
:100AB00060680028E7D035E06068B0F5803F0BD073
:100AC00010B1B0F5A02F11D0286820F48030286034
:100AD000286820F4802002E0286840F480302860F4
:100AE000606890B1FFF752FE06460AE0286840F4BD
:100AF00080202860F0E700BFFFF748FE801B6428D5
:100B000073D828688003F7D50CE0FFF73FFE064650
:100B100005E000BFFFF73AFE801B6428F0D8286884
:100B20008003F7D420789A4E80074FF001094FF0E8
:100B3000000839D5686810F00C0F07D06868C0F35A
:100B40008100022809D16868C00306D4286880079C
:100B500014D52069012808D110E02069B0B1C6F889
:100B60000090FFF713FE074605E00AE1FFF70EFECF
:100B7000C01B0228C4D828688007F7D52868616997
:100B800020F0F80040EAC10028600DE0C6F80080BF
:100B9000FFF7FCFD074604E0FFF7F8FDC01B022845
:100BA00023D828688007F7D4207800072CD5794807
:100BB000A169D9B1C0F80090FFF7E8FD074604E04D
:100BC000FFF7E4FDC01B02280FD8686A8007F7D53D
:100BD00071484FF4FA510068B0FBF1F0009000BF8B
:100BE0000098411E0091FAD20EE080E0C0F800802B
:100BF000FFF7CCFD074604E0FFF7C8FDC01B022845
:100C000075D8686A8007F7D42078400760D5E8690E
:100C10000027C00008D4E86940F08050E861E86926
:100C2000012700F0805000905C480168C90513D48A
:100C30000168834641F480710160FFF7A7FD824699
:100C400006E000BFFFF7A2FDA0EB0A0064284ED823
:100C5000DBF80000C005F5D5E06801280AD008B12E
:100C6000052813D0286A20F001002862286A20F0A5
:100C7000040002E0286A40F001002862E06841F2C6
:100C8000883B98B1FFF782FD82460BE0286A40F06E
:100C900004002862EEE700BFFFF778FDA0EB0A0131
:100CA00059455AD8286A8007F6D50CE0FFF76EFD43
:100CB000824605E0FFF76AFDA0EB0A0159454CD8D2
:100CC000286A8007F6D41FB1E86920F08050E861F7
:100CD000E06988B36968C1F38101022944D0022820
:100CE000C6F8608004D0FFF751FD044638E034E0D8
:100CF000FFF74CFD074604E0FFF748FDC01B022844
:100D00002BD828688001F7D4206AB0F5803F05D140
:100D10006868A16820F4003008436860D4E90801DD
:100D20000843696821F4741108436860C6F860904C
:100D3000FFF72CFD044606E025E000BFFFF726FD87
:100D4000001B022809D828688001F7D51BE000BFE6
:100D5000FFF71CFD001B022802D90320BDE8F88F15
:100D600028688001F4D40EE00128F7D06868226A70
:100D700000F48031914204D1616A00F4701088421D
:100D800001D00120EAE70020E8E70000001002405F
:100D900000004242800442420C00002000700040EB
:100DA00010B5401EB0F1807F01D3012010BD4FF07F
:100DB000E02460610F21601700F060FB0020A0615B
:100DC00007202061002010BD704710B50446006860
:100DD000406994F84110C0F3C010212911D180B1AD
:100DE0002068143050E8001F21F0800140E8001214
:100DF000002AF5D1A06B08B1FFF70EFA204600F0EB
:100E00000DFA2068406994F84210C0F3801022293E
:100E100011D180B12068143050E8001F21F040014A
:100E200040E80012002AF5D1E06B08B1FFF7F4F9B1
:100E3000204600F0CCF9002010BD704770B50400CA
:100E400004D094F84100002510B106E0012070BDE7
:100E500084F84050204600F023F8242084F8410014
:100E60002068C16821F40051C160204600F006FAF4
:100E70002068016921F4904101612068416921F0F5
:100E80002A0141612068C16841F40051C160656474
:100E9000202084F8410084F842006563002070BD82
:100EA00070B586B00025064600950195029503951C
:100EB00000682D49884255D12C49886940F480400A
:100EC0008861886900F480400490886940F00400DB
:100ED0008861886900F004000490886940F004008B
:100EE0008861886900F004000490486940F00100BE
:100EF000486148691E4C00F00100049048150090BC
:100F000002200190032003900120029069462046B0
:100F1000FFF740FB2015CDE9000569462046FFF7A5
:100F200039FB154C1348C4E900058020C4E9025080
:100F300020202561C4E905502046E561FFF7B4FA99
:100F4000F4630022114625206662FFF78BFC252002
:100F5000FFF77AFC002211460F20FFF783FC0F20D9
:100F6000FFF772FC06B070BD00380140001002406F
:100F70000008014058000240CC00002090F84230A8
:100F8000202B01D00220704721B11AB10023036346
:100F900000F0D0B901207047704770472DE9F84341
:100FA000044690F841001F4616460D46202802D000
:100FB0000220BDE8F8837DB176B100206064212075
:100FC00084F84100FFF7E2FBA6848046E684A0682F
:100FD000B0F5805F02D003E00120EAE7206910B19C
:100FE0002E4600250EE000260CE08021204600F071
:100FF000E9F9A0B9AEB116F8010B21684860E08CA0
:10100000401EE084E08C43464FF000020097002829
:10101000EBD14FF04001204600F0D4F930B103206D
:10102000C7E735F8020BC0F30800E6E7202084F894
:1010300041000020BDE7FEE70C4800B5816985B09E
:1010400041F0080181618069694600F00800049060
:1010500001200190232000900020029002200390A4
:101060000348FFF797FA05B000BD000000100240EA
:10107000000C0140FEE7FEE770477047FFF78CBBAE
:1010800030B58FB028216846FFF775F814210AA8FB
:10109000FFF771F801210804CDE900100024029443
:1010A00002250491CDE907504FF4E01009906846FD
:1010B000FFF7E6FC08B172B6FEE70F20CDE90A059E
:1010C0004FF48060CDE90C4002210AA80E94FFF78E
:1010D000FBFB002801D072B6FEE70FB030BD7047B1
:1010E00070B5446A2068406994F84110C0F3C0109C
:1010F0000025212904D118B1E584204600F08EF89E
:101100002068406994F84210C0F38010222904D16D
:1011100018B1E585204600F05AF8606C40F01000E8
:1011200060642046FFF789FE70BD10B50146406A35
:10113000096809684FF0000289062ED4C28501684B
:101140000C3151E8003F23F4807341E80034002C57
:10115000F5D10168143151E8003F23F0010341E863
:101160000034002CF5D10168143151E8003F23F020
:10117000400341E80034002CF5D1202180F84210D2
:10118000016B012909D101680C3151E8003F23F0BE
:10119000100341E80034002CF5D14263016B0129B2
:1011A00002D0FFF7F9FE10BD818DFFF70DFE10BDD7
:1011B00010B5406A01214163016B012902D0FFF79C
:1011C000ECFE10BD818D4908FFF7FEFD10BD0168E2
:1011D0000C3151E8002F22F4907241E80023002BDB
:1011E000F5D10168143151E8002F22F0010241E8E5
:1011F0000023002BF5D1016B012909D101680C31C5
:1012000051E8002F22F0100241E80023002BF5D115
:10121000202180F8421000210163704701680C31E1
:1012200051E8002F22F0C00241E80023002BF5D145
:10123000202180F84110704710B50F4C0D48002157
:1012400020604FF4E130C4E9010121610C20E1602C
:10125000C4E905012046FFF7F1FD2068C16841F0AF
:101260001001C160A4F12C012046BDE810402822E5
:10127000FFF784BE003801408400002070B50446AA
:1012800000680169E26821F440511143016121695C
:10129000A0680843616908432168CA6841F20C6389
:1012A0009A430243CA6020684169A26921F44071EF
:1012B000114341611E492068884202D1FFF7AAFB11
:1012C00001E0FFF797FB00EBC00101EB0012606843
:1012D00064218000B2FBF0F3B3FBF1F36FF018066A
:1012E0007343B2FBF0F5B2FBF0F605EB8305322356
:1012F00003EB0515B5FBF1F5B6FBF1F605F0F005CE
:1013000005EB0615B2FBF0F6B2FBF0F0B0FBF1F026
:101310006FF01802504306EB800003EB0010B0FBA7
:10132000F1F0216800F00F002844886070BD0000D3
:101330000038014038B5816204468285002013469A
:101340006064222284F84220E56B1B4AAA62E56BA6
:101350001A4AEA62E56B1A4A2A63E26B50630A464C
:101360002168E06B091DFFF7DDF82068016840681F
:101370000090206948B120680C3050E8001F41F40B
:10138000807140E80012002AF5D12068143050E83E
:10139000001F41F0010140E80012002AF5D1206849
:1013A000143050E8001F41F0400140E80012002ACC
:1013B000F5D1002038BD00002B110008B111000844
:1013C000E11000082DE9F041984617460E46044604
:1013D000069D27E0681C25D02DB1FFF7D7F9A0EBBB
:1013E0000800A8421ED920680C3050E8001F21F4E4
:1013F000D07140E80012002AF5D12068143050E87E
:10140000001F21F0010140E80012002AF5D1202040
:1014100084F8410084F84200002084F84000032052
:10142000BDE8F0812068006836EA000004D00020A2
:10143000B842CFD00020F3E70120F9E70548006863
:101440000168C943C90604D46FF01001016000F0BF
:101450001DB9704784000020FEE700000FB4054B63
:1014600010B503A9044A029800F028F810BC5DF8F2
:1014700014FB000075160008100000200907090E73
:10148000002804DB00F1E02080F80014704700F031
:101490000F0000F1E02080F8141D704702E008C83A
:1014A000121F08C1002AFAD170477047002001E0DE
:1014B00001C1121F002AFBD1704700002DE9FF4F28
:1014C0008BB09A460F460546002606E025280BD02D
:1014D00052460D9990476D1C761C28780028F5D14E
:1014E0000FB03046BDE8F08F0024A04601226049CD
:1014F00000E0044315F8013F203B02FA03F00842E4
:10150000F7D128782E2817D115F8010F44F00404DC
:101510002A280ED06FF02F022878A0F13001092977
:101520000AD808EB880102EB410100EB01086D1CB1
:10153000F2E757F8048B6D1C287869283ED006DC4A
:101540000028CDD063280BD0642804D136E073285E
:1015500010D075284BD052460D999047761C85E0E7
:1015600017F8040B8DF8000000208DF80100E94603
:10157000012003E057F8049B4FF0FF3061074FF064
:10158000000401D40AE0641C44450DDA8442FADB0D
:1015900019F804100029F6D106E0641C8442FCDB33
:1015A00019F804100029F8D1264404E019F8010BB9
:1015B00052460D999047641EF8D257E001CF4FF084
:1015C0000A0B002802DA40422D2102E0210504D551
:1015D0002B218DF82410012103E0E10705D0202103
:1015E000F7E70DF1200908910CE00021F9E701CFA0
:1015F0004FF00A0BF9E75946FEF7C8FD01F130023A
:1016000009F8012D0028F6D1ADEB090000F1200BFF
:10161000600701D44FF00108D84502DDA8EB0B00AC
:1016200000E000208046002406E009A85246005D44
:101630000D999047641C761C08988442F5DB04E001
:10164000302052460D999047761CB8F10001A8F160
:101650000108F5DC05E019F8010B52460D99904799
:10166000761CBBF10001ABF1010BF4DC6D1C34E71F
:101670000928010013B54FF47A7301226946024824
:10168000FFF78CFC00981CBD8400002010B50F48AB
:10169000FFF79BFB0D484830006840680022C0F10E
:1016A0002800C1B209482C3880F82810425402465C
:1016B00090F8281006A0FFF7D1FE0449BDE81040BD
:1016C0002C3928220148FFF759BC00008400002073
:1016D000726563762064617461206C656E677468FE
:1016E0003A2025642C20696E666F3A2025730D0A16
:1016F00000000000FFF758F8FFF7C2FCFFF79CFC62
:10170000FFF79AFD01A0FFF7A9FEFEE7737461726F
:1017100074206D63752E2E2E0D0A00000102020347
:101720000405060708090A0B0C0D0E0F1010000027
:101730000000000000000102030406070809000081
:1017400000000102030400006817000800000020E8
:10175000140000009C1400087C17000814000020EE
:10176000FC040000AC1400080100000010000000A0
:0C177000000000000024F4000000000055
:0400000508000131BD
:00000001FF
