:020000040800F2
:1000000020090020450100089B1400081B1100086E
:1000100099140008DD010008A51B0008000000007D
:10002000000000000000000000000000C7170008EA
:100030000902000800000000C5170008C9170008E1
:100040005F0100085F0100085F0100085F01000810
:100050005F0100085F0100085F0100085F01000800
:100060005F0100085F0100085F0100085F010008F0
:100070005F0100085F0100085F0100085F010008E0
:100080005F0100085F0100085F0100085F010008D0
:100090005F0100085F0100085F0100085F010008C0
:1000A0005F0100085F0100085F0100085F010008B0
:1000B0005F0100085F0100085F0100085F010008A0
:1000C0005F0100085F0100085F0100085F01000890
:1000D0005F010008891B00085F0100085F0100083C
:1000E0005F0100085F0100085F0100085F01000870
:1000F0005F0100085F0100085F0100085F01000860
:100100005F0100085F0100085F0100085F0100084F
:100110005F0100085F0100085F0100085F0100083F
:100120005F0100085F0100085F0100085F0100082F
:10013000DFF80CD000F040F800480047891E0008A6
:10014000200900200648804706480047FEE7FEE7F2
:10015000FEE7FEE7FEE7FEE7FEE7FEE7FEE7FEE777
:100160002B18000831010008D2B201E000F8012B81
:10017000491EFBD270470022F6E710B513460A4627
:1001800004461946FFF7F0FF204610BD30B50B4678
:10019000014600202022012409E021FA02F59D42B7
:1001A00005D303FA02F5491B04FA02F52844151E8B
:1001B000A2F10102F1DC30BD064C074D06E0E0681B
:1001C00040F0010394E8070098471034AC42F6D39E
:1001D000FFF7B2FF183A0008383A0008FEE730B5DA
:1001E00090F840500124AC40C56B6C6004686360BB
:1001F0004368102B036803D099600068C26030BD6B
:100200009A600068C16030BD704772B6FEE710B5F5
:1002100090F821100022022905D00421816380F882
:100220002020012010BD01680B6823F00E030B6035
:1002300001680B6823F001030B6090F84030C46B39
:10024000012101FA03F3636080F8211080F8202077
:10025000104610BD30B560B11A4B026814219A42A5
:1002600009D2194B1344B3FBF1F18900016417491A
:100270000AE0012030BD134B5B421344B3FBF1F1A4
:10028000890001640F490839C163022180F82110F7
:10029000136843F6F0718B43F0E901142143D0E970
:1002A00002452C4321430469214344692143846965
:1002B00021431943116000214163012242770177F4
:1002C000084630BD08040240F8FFFDBF00000240B0
:1002D00070B5044690F82000002501280CD00120BC
:1002E00084F8200094F821600020012E06D084F8C4
:1002F00020000225284670BD022070BD022684F829
:100300002160A0632068066826F00106066020468A
:10031000FFF765FFE06A00282068016802D041F01D
:100320000E0106E021F0040101602068016841F03F
:100330000A0101602068016841F001010160D9E70C
:1003400070B5044600F00AF90546601C02D0044866
:100350000078044400F002F9401BA042FAD370BDBB
:10036000000000202DE9F84FDFF8C8910024A9F122
:10037000040B23460F2709F1040AABF1040ED1E068
:100380000125A54006EA0502AA4276D1DFF8A8C1F8
:100390004E68A6EB0C0866452BD00DDC032E34D03E
:1003A00005DC36B3012E19D0022E2FD11BE0112E01
:1003B00016D0122E2AD119E0B8F5881F19D006DC04
:1003C000B8F5803F15D0B8F5801F1FD111E0B8F502
:1003D000001F0ED0B8F5041F18D10AE0CB6815E055
:1003E000CB681B1D12E0CB6808330FE0CB680C33E1
:1003F0000CE08B682BB1012B4FF0080303D0456153
:1004000004E0042302E0056100E00023FF2A01D894
:10041000064601E000F104064FEA840501D9A5F182
:100420002005D6F8008007FA05FC28EA0C0803FA34
:1004300005F548EA0508C6F800804D68ED0070D55E
:100440003E4DAE6946F00106AE61AD6924F003068B
:1004500005F0010500953A4D06EB050CDCF8085057
:10046000A607360F07FA06F825EA0805DFF8D48054
:10047000404503D14FF0000825E052E0DFF8C88086
:10048000404502D14FF001081DE0DFF8C080404533
:1004900002D14FF0020816E0DFF8B480404502D1E7
:1004A0004FF003080FE0DFF8AC80404502D14FF079
:1004B000040808E0DFF8A080404502D14FF00508AD
:1004C00001E04FF0060808FA06F848EA0508CCF8FB
:1004D00008804D68D9F80060ED024D4601D51643FD
:1004E00000E096432E604D68DAF80060AD02554694
:1004F00001D5164300E096432E604D68DBF800609E
:10050000AD035D4601D5164300E096432E604D686D
:10051000DEF80060ED03754601D5164300E0964312
:100520002E60641C0A681646E2407FF429AFBDE8DD
:10053000F88F000008040140000011100010024074
:100540000000014000080140000C01400010014083
:100550000014014000180140001C0140014880685F
:10056000704700000000002070B5040025D094F80A
:100570003D00002520B984F83C50204600F050F999
:10058000242084F83D002068016821F00101016009
:100590002068016841F4004101602068016821F48D
:1005A0000041016000F098FA4D4A6168914201D81B
:1005B0004C4900E04C49884201D2012070BD4B49B2
:1005C0002368B0FBF1F15E6826F03F060E435E60E3
:1005D0006368934206D94FF4967359434FF47A7384
:1005E000B1FBF3F12368491C1E6A26F03F06314334
:1005F00019626168914210D84900401EB0FBF1F2C7
:10060000521CC2F30B02042A01D2042022E0B0FBE8
:10061000F1F0401CC0F30B001CE0A268F2B301EB48
:10062000C10303EB0116431EB3FBF6F35B1C43F45B
:1006300080431B0549D092B301EBC10202EB0111CB
:10064000401EB0FBF1F0401CC0F30B0040F48040B2
:1006500040F400402168CA694CF6FF739A43104386
:10066000C861D4E9071001432068026822F0C00283
:1006700011430160D4E9030101432068826848F214
:10068000FF339A4311438160D4E90501084321688F
:10069000CA6822F0FF021043C86001E00EE016E0D5
:1006A0002068016841F0010101602564202084F880
:1006B0003D00256384F83E50002070BD01EB4106EB
:1006C000431EB3FBF6F35B1CB3E70120C2E701EB6B
:1006D0004101401EB0FBF1F0401CC0F30B00B7E736
:1006E000A086010080841E0000093D0040420F00EA
:1006F0002DE9FF4F83B09A46DDE9119793460446F2
:10070000DDF84080FFF72AFF054694F83D002028D9
:100710007FD11923012240492046009500F096FD23
:10072000002876D194F83C00012872D0012084F88A
:100730003C0020680168C90703D1016841F001014C
:1007400001602068016821F400610160212084F8C3
:100750003D00402084F83E0000262664C4F8248032
:10076000A4F82A90608D20852C48E062CDE90075C0
:1007700053465A462046049900F0E8FC70B930E030
:100780002A463946204600F007FE58B1206C04285E
:1007900004D12068016841F400710160012007B0B4
:1007A000BDE8F08F606A216800780861606A401CCB
:1007B0006062218D491E89B22185628D521E62853B
:1007C00022685369DB435B070BD469B10078106181
:1007D000606A401C6062208D401E2085608D401E36
:1007E0006085208D0028CBD12A463946204600F06E
:1007F00001FD0028CAD154F83D0B016841F4007195
:100800000160202004F81E09E67766770020C6E71D
:10081000FFE70220C3E70000020010000000FFFF16
:1008200010B586B0002100910191029103910068FA
:100830000F4988421AD10F4CA06940F00800A0610E
:10084000A069694600F008000490C02000901220C2
:100850000190032003900848FFF784FDE06940F40D
:100860000010E061E06900F40010049006B010BDD3
:100870000054004000100240000C01400248816812
:10088000027811448160704700000020074810B5CD
:10089000016841F010010160032000F075F80F209D
:1008A00000F006F800F024F8002010BD00200240FF
:1008B00070B50D4D04464FF47A712878B1FBF0F015
:1008C0000A490968B1FBF0F000F0DCFA48B9102CD5
:1008D00007D200222146501E00F036F800206C603E
:1008E00070BD012070BD0000000000200C00002041
:1008F0000C4808B5816941F001018161816901F00D
:1009000001010091C16941F08051C161C06900F0ED
:10091000805000900448416821F0E06141F000718E
:10092000416008BD0010024000000140002809DBC2
:1009300000F01F02012191404009800000F1E020F9
:10094000C0F8001170470000F0B40E4B1B680C4655
:10095000C3F30223C3F10705042D00D90425191D93
:10096000072901D2002300E0DB1E012606FA05F16B
:10097000491E214099409E40761E16403143F0BCEE
:1009800001F036B90CED00E0064900F007020868F6
:100990004FF6FF03184040EA0220034A1043086064
:1009A000704700000CED00E00000FA052DE9F0476B
:1009B0000F46050061D0434E306800F00700B84292
:1009C00009D2306820F0070038433060306800F00A
:1009D0000700B84251D128683B4C810712D5400727
:1009E00003D5606840F4E06060602878000703D5B4
:1009F000606840F4605060606068A96820F0F000B2
:100A0000084360602878C00728D06868012810D0A3
:100A10002168022810D0890700292EDA616821F0A8
:100A2000030101436160FFF799FD804641F2883977
:100A30000DE021688903EFE78901EDE7FFF78EFDFF
:100A4000A0EB0801494502D90320BDE8F0876068A2
:100A5000696800F00C00B0EB810FEFD1306800F056
:100A60000700B8420BD9306820F0070038433060E7
:100A7000306800F00700B84201D00120E5E728788F
:100A8000400705D56068E96820F4E06008436060CD
:100A90002878000706D56068296920F4605040EA8C
:100AA000C100606000F038F86168084AC1F30311C2
:100AB000515CC8400649086006480068FFF7F8FE28
:100AC0000020C2E70020024000100240FE1E000885
:100AD0000C00002004000020044805490068496813
:100AE000044AC1F30221515CC84070470C00002049
:100AF000001002400E1F00080448054900684968BC
:100B0000044AC1F3C221515CC84070470C00002068
:100B1000001002400E1F00080E4A51680E4801F0F6
:100B20000C03042B11D0082B0FD10C48C1F38343C5
:100B3000C903C05C0AD55168084AC1F34041921EFE
:100B4000515C054A5043B0FBF1F0704704494843FB
:100B5000704700000010024000127A00EE1E0008EC
:100B600000093D002DE9F84F040070D02078C04DF9
:100B7000C00749D06868C0F38100012807D06868C1
:100B8000C0F38100022809D16868C00306D528682F
:100B9000800339D560680028E7D035E06068B0F59B
:100BA000803F0BD010B1B0F5A02F11D0286820F4F1
:100BB00080302860286820F4802002E0286840F413
:100BC00080302860606890B1FFF7C8FC06460AE0F4
:100BD000286840F480202860F0E700BFFFF7BEFCE3
:100BE000801B642873D828688003F7D50CE0FFF7D2
:100BF000B5FC064605E000BFFFF7B0FC801B64288B
:100C0000F0D828688003F7D420789A4E80074FF0F8
:100C100001094FF0000839D5686810F00C0F07D0B3
:100C20006868C0F38100022809D16868C00306D44F
:100C30002868800714D52069012808D110E02069B0
:100C4000B0B1C6F80090FFF789FC074605E00AE15D
:100C5000FFF784FCC01B0228C4D828688007F7D59A
:100C60002868616920F0F80040EAC10028600DE0C2
:100C7000C6F80080FFF772FC074604E0FFF76EFC41
:100C8000C01B022823D828688007F7D420780007E3
:100C90002CD57948A169D9B1C0F80090FFF75EFC66
:100CA000074604E0FFF75AFCC01B02280FD8686A09
:100CB0008007F7D571484FF4FA510068B0FBF1F0A6
:100CC000009000BF0098411E0091FAD20EE080E033
:100CD000C0F80080FFF742FC074604E0FFF73EFC47
:100CE000C01B022875D8686A8007F7D420784007AF
:100CF00060D5E8690027C00008D4E86940F080505A
:100D0000E861E869012700F0805000905C480168C4
:100D1000C90513D40168834641F480710160FFF76F
:100D20001DFC824606E000BFFFF718FCA0EB0A009E
:100D300064284ED8DBF80000C005F5D5E06801282E
:100D40000AD008B1052813D0286A20F001002862D3
:100D5000286A20F0040002E0286A40F001002862BE
:100D6000E06841F2883B98B1FFF7F8FB82460BE060
:100D7000286A40F004002862EEE700BFFFF7EEFBB0
:100D8000A0EB0A0159455AD8286A8007F6D50CE02D
:100D9000FFF7E4FB824605E0FFF7E0FBA0EB0A016A
:100DA00059454CD8286A8007F6D41FB1E86920F06D
:100DB0008050E861E06988B36968C1F38101022964
:100DC00044D00228C6F8608004D0FFF7C7FB044671
:100DD00038E034E0FFF7C2FB074604E0FFF7BEFB54
:100DE000C01B02282BD828688001F7D4206AB0F5F0
:100DF000803F05D16868A16820F40030084368602E
:100E0000D4E908010843696821F474110843686053
:100E1000C6F86090FFF7A2FB044606E025E000BF9D
:100E2000FFF79CFB001B022809D828688001F7D532
:100E30001BE000BFFFF792FB001B022802D9032032
:100E4000BDE8F88F28688001F4D40EE00128F7D0BF
:100E50006868226A00F48031914204D1616A00F42A
:100E60007010884201D00120EAE70020E8E7000086
:100E70000010024000004242800442420C00002068
:100E80000070004010B5401EB0F1807F01D30120FA
:100E900010BD4FF0E02460610F21601700F0A8FE44
:100EA0000020A06107202061002010BD704710B510
:100EB00004460068406994F84110C0F3C01021292D
:100EC00011D180B12068143050E8001F21F080015A
:100ED00040E80012002AF5D1A06B08B1FFF797F99E
:100EE000204600F041FD2068406994F84210C0F3AC
:100EF0008010222911D180B12068143050E8001FE1
:100F000021F0400140E80012002AF5D1E06B08B161
:100F1000FFF77DF9204600F000FD002010BD70476E
:100F200070B5040004D094F84100002510B106E02B
:100F3000012070BD84F84050204600F023F82420A2
:100F400084F841002068C16821F40051C160204646
:100F500000F03AFD2068016921F4904101612068A8
:100F6000416921F02A0141612068C16841F40051C2
:100F7000C1606564202084F8410084F84200656304
:100F8000002070BD70B586B000250646009501951D
:100F90000295039500682D49884255D12C498869EE
:100FA00040F480408861886900F48040049088693A
:100FB00040F004008861886900F0040004908869AA
:100FC00040F004008861886900F0040004904869DA
:100FD00040F00100486148691E4C00F00100049097
:100FE00048150090022001900320039001200290F8
:100FF00069462046FFF7B6F92015CDE90005694698
:101000002046FFF7AFF9154C1348C4E900058020CE
:10101000C4E9025020202561C4E905502046E5615D
:10102000FFF718F9F4630022114625206662FFF7E6
:101030008BFC2520FFF77AFC002211460F20FFF7DA
:1010400083FC0F20FFF772FC06B070BD0038014032
:10105000001002400008014058000240DC0000205F
:1010600090F84230202B01D00220704721B11AB1F4
:101070000023036300F004BD0120704770477047F0
:101080002DE9F843044690F841001F4616460D46E8
:10109000202802D00220BDE8F8837DB176B100207F
:1010A0006064212084F84100FFF758FAA684804646
:1010B000E684A068B0F5805F02D003E00120EAE793
:1010C000206910B12E4600250EE000260CE080219C
:1010D000204600F01DFDA0B9AEB116F8010B216845
:1010E0004860E08C401EE084E08C43464FF00002F4
:1010F00000970028EBD14FF04001204600F008FD9A
:1011000030B10320C7E735F8020BC0F30800E6E76B
:10111000202084F841000020BDE7FEE701684A690D
:10112000D24352050FD46FF480624A61002140F827
:10113000301F202242738173026942F0040202616F
:101140000173012070470020704700002DE9F8432B
:10115000044600680D46DDE9089701689846164682
:1011600041F4807101604B4600224FF0011120468E
:10117000009700F06BF848B120680068C00502D500
:101180004FF4007020640320BDE8F883216805F067
:10119000FE0008613B464A461549204600F09EF88D
:1011A00088B920684169806900903A4649462046DE
:1011B00000F0F2F848B1206C042804D120680168DE
:1011C00041F4007101600120DEE7F5B2B8F1010FD2
:1011D00009D02168300A08613A464946204600F0A5
:1011E000DBF80028E7D1206805610020CCE700008B
:1011F0000200010070B516460D4604461EE020466A
:10120000FFF78CFF08B1012070BD681C16D0FFF7F6
:10121000A5F9801BA84200D885B920684069C04361
:1012200040070BD5002044F8300F20216173A073D4
:10123000216941F0200121612073E4E720684069C1
:10124000C0434007DBD4002070BD00002DE9F0470B
:10125000984617460D460446C1F30746DDF8209030
:101260002AE000BFB8F1FF3F26D0FFF777F9A0EBE7
:101270000901414502D8B8F1000F1DD12068012EA7
:1012800016D0806925EA00000004000C12D000206E
:10129000B84211D1002044F8300F20216173A073AF
:1012A000216941F02001216120730120BDE8F08710
:1012B0004069E7E70120EBE72068012E0AD080694A
:1012C00025EA00000004000C06D00020B842C9D076
:1012D0000020EBE74069F3E70120F7E72DE9F0474D
:1012E000984616460D4604464FF000094FF0200A76
:1012F000C1F3074723E020684069C043400515D487
:101300002068016841F40071016021686FF4806019
:101310004861C4F8309084F83DA084F83E90216C78
:1013200041F00401216484F83C9021E0701C06D057
:10133000FFF714F9A0EB0800B04203D816B1012F53
:101340001FD021E02068012F15D0806925EA000018
:101350000004000C18D000BF44F8309F84F80DA0A2
:1013600084F80E90216941F02001216184F80C90ED
:101370000120BDE8F087406925EA00000004000C68
:10138000EAD12068406901E02068806925EA000010
:101390000004000CAFD1ECE770B516460D460446CC
:1013A0001EE02046FFF7BAFE08B1012070BD681CA0
:1013B00016D0FFF7D3F8801BA84200D885B9206863
:1013C0004069C04300060BD5002044F8300F2021AF
:1013D0006173A073216941F0200121612073E4E76A
:1013E00020684069C0430006DBD4002070BD0000C7
:1013F0000C4800B5816985B041F0080181618069C0
:10140000694600F00800049001200190232000901C
:1014100000200290022003900348FEF7A3FF05B0CE
:1014200000BD000000100240000C0140094808B552
:10143000816941F004018161816901F00401009139
:10144000816941F008018161806900F00800009025
:1014500008BD0000001002400D4810B50B490160A6
:101460000C49416000214FF480428160C0E90312C1
:1014700041618161C1610162FFF776F8002803D004
:10148000BDE81040FEF7C1BE10BD00000054004092
:1014900014000020801A0600FEE7FEE730B40021A9
:1014A000084B0A465FF0000003EBC004401CC0B2CA
:1014B00062548028F8D3491CC9B20829F2D330BC41
:1014C00000F09EB82001002010B57F2816D83F29D3
:1014D00014D80723A3EBD10301F00701C1F10704DE
:1014E0000121A140064CDBB204EBC000002AC25C23
:1014F000C9B201D00A4300E08A43C25410BD0000C3
:101500002001002010B50021AE2000F043F9002199
:10151000022000F03FF90021102000F03BF90021EB
:10152000402000F037F90021812000F033F900213C
:10153000CF2000F02FF90021A12000F02BF900218D
:10154000C02000F027F90021A62000F023F9002197
:10155000A82000F01FF900213F2000F01BF9002116
:10156000D32000F017F90021084600F013F90021FC
:10157000D52000F00FF90021802000F00BF90021A8
:10158000D92000F007F90021F12000F003F9002133
:10159000DA2000F0FFF80021122000F0FBF8002113
:1015A000DB2000F0F7F80021402000F0F3F80021E4
:1015B000202000F0EFF80021022000F0EBF80021DD
:1015C0008D2000F0E7F80021142000F0E3F800215E
:1015D000A42000F0DFF80021A62000F0DBF80021B5
:1015E000AF2000F0D7F80021AF2000F0D3F8FFF7CC
:1015F00055FF0021BDE81040084600F027B8000064
:1016000070B5114E002400BF04F1B000C0B200213B
:1016100000F0C0F80021084600F0BCF800211020BE
:1016200000F0B8F85FF0000506EBC5000121005D91
:1016300000F0B0F86D1CEDB2802DF5D3641CE4B25F
:10164000082CE1D370BD00002001002010B5044635
:10165000B031C8B2002100F09DF8102040EA14100B
:10166000002100F097F804F00F00BDE810400021C1
:1016700000F090B82DE9FC4F1C460E4682468B4682
:101680000190082B0DD0600700D0012000EBD400A2
:1016900061084843C0B28146203AD0B20090002091
:1016A0004BE00620F7E7082C13D00C2C18D0102C98
:1016B0001BD0182C44D10098234900EBC00000BF78
:1016C00001EB8001002711F80850E80712D00B9AAF
:1016D00013E000981D4900EB400001EB4001F1E7E9
:1016E00000981B4900EB4000EAE71A49009801EB1B
:1016F0000011E7E70B9828B3002231465046FFF768
:10170000E3FE761C7F1C6D08FFB2F6B2082FDCD317
:101710000AF1010000F0FF0A082C0AD00199AAEB97
:101720000100B0EB540F04D10BF108008A4600F021
:10173000FF0B08F101005E46C0B280464845B2D3B7
:10174000BDE8FC8F0122D8E7A22B0008161F000875
:101750003E210008B22500082DE9F8411E46154635
:1017600088460446079F0BE03346414620460097D3
:10177000FFF780FF082E0AD004EB5600C4B26D1CA0
:101780002A78A2F120005E28EED9BDE8F881A41DD8
:10179000E4B2F4E703B583B0012003ABCDE9003038
:1017A0004FF47A7201290292034606D00022782172
:1017B0000348FEF79DFF05B000BD4022F7E700009B
:1017C0001400002070477047FFF758B830B58FB04D
:1017D00028216846FEF7CFFC14210AA8FEF7CBFCAF
:1017E00001210804CDE9001000240294022504918F
:1017F000CDE907504FF4E01009906846FFF7B2F9C1
:1018000008B172B6FEE70F20CDE90A054FF48060FB
:10181000CDE90C4002210AA80E94FFF7C7F8002872
:1018200001D072B6FEE70FB030BD704770B5446AA4
:101830002068406994F84110C0F3C01000252129A8
:1018400004D118B1E584204600F08EF82068406984
:1018500094F84210C0F38010222904D118B1E58514
:10186000204600F05AF8606C40F01000606420469A
:10187000FFF755FB70BD10B50146406A096809685D
:101880004FF0000289062ED4C28501680C3151E860
:10189000003F23F4807341E80034002CF5D1016847
:1018A000143151E8003F23F0010341E80034002CDB
:1018B000F5D10168143151E8003F23F0400341E8BD
:1018C0000034002CF5D1202180F84210016B012951
:1018D00009D101680C3151E8003F23F0100341E8C1
:1018E0000034002CF5D14263016B012902D0FFF7CF
:1018F000C5FB10BD818DFFF7D9FA10BD10B5406A48
:1019000001214163016B012902D0FFF7B8FB10BD33
:10191000818D4908FFF7CAFA10BD01680C3151E802
:10192000002F22F4907241E80023002BF5D10168CA
:10193000143151E8002F22F0010241E80023002B6E
:10194000F5D1016B012909D101680C3151E8002F53
:1019500022F0100241E80023002BF5D1202180F86D
:10196000421000210163704701680C3151E8002FDB
:1019700022F0C00241E80023002BF5D1202180F89D
:101980004110704710B50F4C0D48002120604FF4F6
:10199000E130C4E9010121610C20E160C4E90501E5
:1019A0002046FFF7BDFA2068C16841F01001C16010
:1019B000A4F12C012046BDE810402822FFF750BBBF
:1019C000003801409400002070B5044600680169A9
:1019D000E26821F44051114301612169A068084384
:1019E000616908432168CA6841F20C639A43024363
:1019F000CA6020684169A26921F4407111434161C4
:101A00001E492068884202D1FFF776F801E0FFF70F
:101A100063F800EBC00101EB0012606864218000F4
:101A2000B2FBF0F3B3FBF1F36FF018067343B2FBB4
:101A3000F0F5B2FBF0F605EB8305322303EB051559
:101A4000B5FBF1F5B6FBF1F605F0F00505EB061573
:101A5000B2FBF0F6B2FBF0F0B0FBF1F06FF0180261
:101A6000504306EB800003EB0010B0FBF1F021685F
:101A700000F00F002844886070BD0000003801406D
:101A800038B58162044682850020134660642222B4
:101A900084F84220E56B1B4AAA62E56B1A4AEA62A7
:101AA000E56B1A4A2A63E26B50630A462168E06BD1
:101AB000091DFEF70DFC2068016840680090206950
:101AC00048B120680C3050E8001F41F4807140E8B4
:101AD0000012002AF5D12068143050E8001F41F0B0
:101AE000010140E80012002AF5D12068143050E8C6
:101AF000001F41F0400140E80012002AF5D100200B
:101B000038BD000077180008FD1800082D180008DF
:101B10002DE9F041984617460E460446069D27E0FB
:101B2000681C25D02DB1FEF719FDA0EB0800A842D6
:101B30001ED920680C3050E8001F21F4D07140E815
:101B40000012002AF5D12068143050E8001F21F05F
:101B5000010140E80012002AF5D1202084F841005C
:101B600084F84200002084F840000320BDE8F081A2
:101B70002068006836EA000004D00020B842CFD0C8
:101B80000020F3E70120F9E7054800680168C94330
:101B9000C90604D46FF01001016000F037B9704736
:101BA00094000020FEE700000FB4054B10B503A918
:101BB000044A029800F03CF810BC5DF814FB0000E9
:101BC000F51D0008100000200FB4084B10B504A943
:101BD00002AA039800F02CF8044602A9002000F0A5
:101BE00003F9204610BC5DF814FB0000E91D000855
:101BF0000907090E002804DB00F1E02080F800143A
:101C0000704700F00F0000F1E02080F8141D7047CD
:101C100002E008C8121F08C1002AFAD170477047B5
:101C2000002001E001C1121F002AFBD17047000013
:101C30002DE9FF4F8BB09A460F460546002606E079
:101C400025280BD052460D9990476D1C761C28789C
:101C50000028F5D10FB03046BDE8F08F0024A04633
:101C60000122604900E0044315F8013F203B02FADD
:101C700003F00842F7D128782E2817D115F8010F64
:101C800044F004042A280ED06FF02F022878A0F127
:101C9000300109290AD808EB880102EB410100EB69
:101CA00001086D1CF2E757F8048B6D1C2878692831
:101CB0003ED006DC0028CDD063280BD0642804D1A8
:101CC00036E0732810D075284BD052460D999047B6
:101CD000761C85E017F8040B8DF8000000208DF8C5
:101CE0000100E946012003E057F8049B4FF0FF3064
:101CF00061074FF0000401D40AE0641C44450DDA8A
:101D00008442FADB19F804100029F6D106E0641CBD
:101D10008442FCDB19F804100029F8D1264404E0C1
:101D200019F8010B52460D999047641EF8D257E0FE
:101D300001CF4FF00A0B002802DA40422D2102E0C9
:101D4000210504D52B218DF82410012103E0E107A2
:101D500005D02021F7E70DF1200908910CE00021C2
:101D6000F9E701CF4FF00A0BF9E75946FEF70EFAF3
:101D700001F1300209F8012D0028F6D1ADEB090080
:101D800000F1200B600701D44FF00108D84502DDB7
:101D9000A8EB0B0000E000208046002406E009A824
:101DA0005246005D0D999047641C761C0898844249
:101DB000F5DB04E0302052460D999047761CB8F1CF
:101DC0000001A8F10108F5DC05E019F8010B524605
:101DD0000D999047761CBBF10001ABF1010BF4DCCF
:101DE0006D1C34E7092801000A68531C0B60107051
:101DF0007047000013B54FF47A7301226946024818
:101E0000FFF73EF900981CBD9400002038B5144837
:101E1000FFF74DF812484830006840680024C0F1D0
:101E20002800C1B20E482C38024680F828104454CD
:101E300090F828100BA0FFF7B7FE094A14210823D9
:101E40002C3A08460094FFF787FCFFF7D9FB0449BA
:101E5000BDE838402C3928220148FFF701B90000BD
:101E600094000020726563762064617461206C6563
:101E70006E6774683A2025642C20696E666F3A207C
:101E800025730D0A000000008AB0FEF7FFFCFFF783
:101E90009DFCFFF7CBFAFFF7DFFAFFF733FBFFF705
:101EA000A7FAFFF76FFD00244FF47A760125641C32
:101EB0000A2C00D100243046FEF742FA224607A140
:101EC00001A8FFF781FE0A21082301AA0846009510
:101ED000FFF742FCFFF794FBE9E700006375725FD0
:101EE000696478203D2025640D0A00000102020388
:101EF0000405060708090A0B0C0D0E0F1010000050
:101F000000000000000001020304060708090000A9
:101F10000000010203040000000000000000002F88
:101F2000000000000700070000147F147F14002445
:101F30002A7F2A1200626408132300364955225072
:101F400000000503000000001C22410000004122A7
:101F50001C000014083E08140008083E0808000091
:101F600000A0600000080808080800006060000089
:101F7000002010080402003E5149453E0000427F07
:101F80004000004261514946002141454B31001853
:101F900014127F10002745454539003C4A49493015
:101FA00000017109050300364949493600064949CF
:101FB000291E0000363600000000563600000008DA
:101FC00014224100001414141414000041221408B7
:101FD00000020151090600324959513E007C12119C
:101FE000127C007F49494936003E41414122007F31
:101FF0004141221C007F49494941007F09090901EB
:10200000003E4149497A007F0808087F0000417F6F
:102010004100002040413F01007F08142241007F21
:1020200040404040007F020C027F007F0408107F88
:10203000003E4141413E007F09090906003E4151F1
:10204000215E007F091929460046494949310001AE
:10205000017F0101003F4040403F001F2040201F02
:10206000003F4038403F00631408146300070870C5
:10207000080700615149454300007F414100005578
:102080002A552A55000041417F0000040201020444
:102090000040404040400000010204000020545431
:1020A0005478007F48444438003844444420003881
:1020B0004444487F00385454541800087E090102F3
:1020C0000018A4A4A47C007F080404780000447DC8
:1020D0004000004080847D00007F10284400000004
:1020E000417F4000007C04180478007C08040478D8
:1020F00000384444443800FC2424241800182424C4
:1021000018FC007C080404080048545454200004BF
:102110003F444020003C4040207C001C2040201CCC
:10212000003C4030403C004428102844001CA0A043
:10213000A07C004464544C4414141414141400007F
:10214000000000000000000000000000FC00000093
:10215000000002000000000C020C02000000000061
:10216000000090D0BCD0BC900003000300001824F5
:10217000FE448C000302070201001824D8B04C80F2
:10218000000300010201C038E438E000010202014E
:10219000020208060000000000000000000000002D
:1021A00000F80402000000010204000204F800002C
:1021B0000004020100009060F8609000000001003F
:1021C00000002020FC202000000001000000000092
:1021D0000000000008060000000020202020200051
:1021E00000000000000000000000000000020000ED
:1021F00000000080601C0200040300000000F804DE
:102200000404F8000102020201000008FC000000C2
:102210000002030200001884442418000302020292
:10222000020008042424D80001020202010040B088
:1022300088FC80000000000302003C242424C40029
:10224000010202020100F824242CC0000102020253
:1022500001000C04E41C0400000003000000D8246A
:102260002424D80001020202010038444444F8004A
:102270000003020201000000100000000000020044
:102280000000000020000000000006000000002008
:10229000508804020000000001029090909090008D
:1022A000000000000000000204885020000201002D
:1022B00000001804C4241800000002000000F80404
:1022C000E494F80001020202020000E09CF08000A9
:1022D00002030000030204FC2424D80002030202CB
:1022E0000100F80404040C0001020202010004FCD5
:1022F0000404F80002030202010004FC24740C0030
:1023000002030202030004FC24740C000203020016
:102310000000F0080444CC4000010202010004FC6B
:102320002020FC040203000003020404FC04040057
:10233000020203020200000404FC04040604040375
:10234000000004FC24D00C0402030200030204FC7D
:1023500004000000020302020203FC3CC03CFC003B
:1023600003000300030004FC30C4FC040203020069
:102370000300F8040404F80001020202010004FC56
:1023800024241800020302000000F8848404F800EA
:1023900001020207050004FC246498000203020005
:1023A0000302182424448C000302020201000C04DE
:1023B000FC040C0000020302000004FC0000FC040A
:1023C000000102020100047C80E01C040000030004
:1023D00000001CE03CE01C00000300030000049C23
:1023E000609C0400020300030200041CE01C0400C3
:1023F0000002030200000C84641C040002030202B9
:1024000003000000FE020200000007040400000EAA
:1024100030C00000000000010200000202FE0000C7
:102420000004040700000004020400000000000093
:10243000000000000000000008080808080800006C
:10244000020000000000000000000040A0A0C0004A
:1024500000010202030204FC2020C000000302026B
:10246000010000C02020600000010202020000C044
:102470002024FC0000010202030200C0A0A0C00052
:102480000001020202000020F824240400020302DA
:1024900002000040A0A0602000070A0A0A0404FC11
:1024A0002020C0000203020003020020E40000001C
:1024B000000203020000000020E4000008080807F2
:1024C000000004FC80E02020020302000302040458
:1024D000FC000000020203020200E020E020C00035
:1024E00003000300030020E02020C00002030200DC
:1024F000030200C02020C00000010202010020E011
:102500002020C000080F0A02010000C02020E000C7
:102510000001020A0F0820E0402020000203020010
:1025200000000060A0A020000002020203000020C2
:10253000F820000000000102020020E00020E0007E
:1025400000010202030220E020806020000003015D
:1025500000006080E0806000000300030000206055
:102560008060200002030003020020E02080602041
:102570000808070100000020A060200000020302FC
:102580000200000020DE020000000007040000003E
:1025900000FF00000000000F00000002DE2000002D
:1025A0000004070000000201020404020000000011
:1025B000000000000000000000000000000000001B
:1025C0000000000000F800000000000000333000B0
:1025D000000000100C06100C0600000000000000B7
:1025E000000040C07840C0784000043F04043F042D
:1025F0000400007088FC08300000001820FF211E35
:102600000000F008F000E018000000211C031E216B
:102610001E0000F00888700000001E2123241927E6
:10262000211010160E000000000000000000000045
:102630000000000000E0180402000000000718205D
:10264000400000020418E0000000004020180700CD
:102650000000404080F0804040000202010F010273
:102660000200000000F0000000000101011F010154
:102670000100000000000000000080B070000000B9
:102680000000000000000000000000010101010145
:1026900001010000000000000000003030000000D8
:1026A00000000000000080601804006018060100AF
:1026B000000000E010080810E000000F10202010BB
:1026C0000F00001010F8000000000020203F202024
:1026D00000000070080808887000003028242221BB
:1026E0003000003008888848300000182020201171
:1026F0000E000000C02010F8000000070424243F52
:10270000240000F8088888080800001921202011FA
:102710000E0000E0108888180000000F1120201122
:102720000E0000380808C83808000000003F00000C
:1027300000000070880808887000001C22212122F7
:102740001C0000E010080810E000000031222211F7
:102750000F00000000C0C00000000000003030008A
:102760000000000000800000000000008060000009
:102770000000000080402010080000010204081042
:102780002000404040404040400004040404040451
:1027900004000008102040800000002010080402FF
:1027A0000100007048080808F00000000030360101
:1027B0000000C030C828E810E000071827242314C0
:1027C0000B000000C038E0000000203C230202277C
:1027D000382008F8888888700000203F20202011C9
:1027E0000E00C03008080808380007182020201004
:1027F000080008F808080810E000203F20202010FA
:102800000F0008F88888E8081000203F20202320C7
:10281000180008F88888E8081000203F200003000E
:102820000000C03008080838000007182020221EC9
:10283000020008F808000008F808203F21010121E3
:102840003F20000808F8080800000020203F202052
:10285000000000000808F8080800C08080807F00A1
:10286000000008F888C028180800203F20012638FA
:10287000200008F8080000000000203F2020202051
:10288000300008F8F800F8F80800203F003F003F4B
:10289000200008F830C00008F808203F2000071882
:1028A0003F00E01008080810E0000F102020201062
:1028B0000F0008F808080808F000203F2101010176
:1028C0000000E01008080810E0000F182424385019
:1028D0004F0008F8888888887000203F2000030C8B
:1028E0003020007088080808380000382021212294
:1028F0001C00180808F8080818000000203F2000F5
:10290000000008F808000008F808001F2020202018
:102910001F000878880000C83808000007380E013A
:102920000000F80800F80008F800033C0700073C26
:102930000300081868808068180820302C03032CD6
:1029400030200838C800C83808000000203F2000A8
:10295000000010080808C838080020382621202068
:102960001800000000FE020202000000007F40404C
:102970004000000C30C000000000000000010638DC
:10298000C00000020202FE000000004040407F0044
:102990000000000004020202040000000000000029
:1029A0000000000000000000000080808080808027
:1029B000808000020204000000000000000000000F
:1029C0000000000080808080000000192422222264
:1029D0003F2008F8008080000000003F11202011F7
:1029E0000E000000008080800000000E11202020DA
:1029F0001100000000808088F800000E11202010D7
:102A00003F200000808080800000001F22222222C0
:102A10001300008080F0888888180020203F202044
:102A200000000000808080808000006B949494936C
:102A3000600008F8008080800000203F2100002016
:102A40003F2000809898000000000020203F2020B8
:102A50000000000000809898000000C08080807F07
:102A6000000008F8000080808000203F24022D3004
:102A70002000000808F8000000000020203F20206F
:102A800000008080808080808000203F20003F20E8
:102A9000003F8080008080800000203F21000020D7
:102AA0003F200000808080800000001F2020202028
:102AB0001F00808000808000000080FFA120201186
:102AC0000E000000008080808000000E112020A0F9
:102AD000FF80808080008080800020203F212000B7
:102AE00001000000808080808000003324242424A2
:102AF0001900008080E0808000000000001F20207E
:102B000000008080000000808000001F2020201036
:102B10003F20808080000080808000010E30080609
:102B2000010080800080008080800F300C030C301A
:102B30000F0000808000808080000020312E0E3148
:102B40002000808080000080808080818E70180648
:102B5000010000808080808080000021302C2221B4
:102B6000300000000000807C020200000000003FF6
:102B7000404000000000FF00000000000000FF00D7
:102B800000000002027C800000000040403F000086
:102B90000000000601010202040400000000000021
:102BA0000000000000000000000000000000000025
:102BB0000000000000000000000000000000000015
:102BC0000000000000000000000000F0F0F0000035
:102BD00000000000000000017F0100000000000074
:102BE0000000001C1C1C0000000000008060301C65
:102BF0008C60301C0C000000000000000000000091
:102C000000000000000000000000000000000000C4
:102C100000E00000000000E000000086E69F8686DD
:102C20008686E69F860000011F01010101011F0148
:102C30000100000080C06020F820E0C0000000001B
:102C400003070C18FF70E18100000000070F10104F
:102C50007F100F0700008060206080000000E020EF
:102C600000000F3020309F70DC371030C0000000B3
:102C7000100E03000718101807000000C02020E005
:102C8000C0000000000080E01F38E88703C43C0457
:102C90000000070F1810100B070D1010080000801F
:102CA0008C4C380000000000000000000000000014
:102CB0000000000000000000000000000000000014
:102CC000000000000000000080E030080400000068
:102CD000000000FEFF0100000000000000000000F6
:102CE000030F1820400000040830E08000000000BE
:102CF00000000000000001FFFE0000000000004096
:102D000020180F0300000000000000000000000079
:102D1000C00000000000004266663C18FF183C66D8
:102D200066420000000000000300000000000000F8
:102D300000000000800000000000001010101010C3
:102D4000FF10101010100000000000000300000031
:102D50000000000000000000000000000000000073
:102D60000000000000000000000000808C4C3800D3
:102D70000000000000000000000000000000000053
:102D800000000010101010101010101010000000A3
:102D90000000000000000000000000000000000033
:102DA0000000000000000000000000000000000023
:102DB000000000001C1C1C000000000000000000BF
:102DC000000000000000E0380C00000000008070EF
:102DD0001C03000000000060380E0100000000002D
:102DE0000000000080C060202060C080000000FE65
:102DF000FF010000000001FFFE000001070E181097
:102E000010180E0701000000808080C0E000000064
:102E100000000000000000FFFF00000000000000B4
:102E20001010101F1F1010100000008040202020E4
:102E30002060C080000000030300804020381F078E
:102E40000000001C1A1918181818181F000000801C
:102E5000C020202060C0800000000003030010108C
:102E6000182FE780000000070F10101010180F0730
:102E70000000000000000000C0E0F000000000C002
:102E8000B088868180FFFF80800000000000001075
:102E9000101F1F1010000000E06060606060606044
:102EA000000000003F1008080818F0E000000007CC
:102EB0000B101010101C0F030000000080C04020F9
:102EC0002020E0C0000000FCFF211008080818F0D6
:102ED000E0000001070C18101010080F030000009C
:102EE000C0E06060606060E060000000030000001F
:102EF000E0180700000000000000001F1F00000095
:102F000000000080C0602020202060C0800000877A
:102F1000EF2C1818303068CF830000070F0810100E
:102F20001010180F07000000C0C020202020C08013
:102F30000000001F3F604040402010FFFE000000E6
:102F40000C1C101010080F0300000000000000000F
:102F500000000000000000000000000E0E0E000047
:102F6000000000000000001C1C1C0000000000000D
:102F70000000000000000000000000000000000C45
:102F80000C000000000000000000005838000000A5
:102F90000000000000000000008040201000000041
:102FA0001028448201000000000000000000000022
:102FB00001020408100000000000000000000000F2
:102FC00000000084848484848484848484000000D9
:102FD0000000000000000000000000001020408001
:102FE00000000000000000000000000001824428F2
:102FF000100000001008040201000000000000C0E2
:1030000020201010101030E0C0000003030000F07A
:1030100010080C070300000000001C1C1C0000002E
:103020000000000000C0406020202040C00000FCE4
:10303000FF01F00E03C1FE03807F0001070E08119F
:103040001110110904020000000080E0E0000000FF
:1030500000000000807C4340477FF880000010188B
:103060001F1000000000131F1C1020E0E020202093
:103070002060C080000000FFFF10101010182FE724
:103080008000101F1F1010101010180F07000000F4
:1030900080C0402020202060E00000FCFF010000F4
:1030A0000000000001000001070E181010100804B5
:1030B000030020E0E02020202040C080000000FF2E
:1030C000FF000000000001FFFE00101F1F10101085
:1030D00018080E07010020E0E020202020202060BA
:1030E000800000FFFF101010107C00000000101F77
:1030F0001F10101010101018060020E0E0202020F3
:1031000020206060800000FFFF101010107C000085
:103110000100101F1F100000000000000000000050
:1031200080C06020202040E0000000FCFF01000083
:103130004040C0C140400001070E181010100F0F92
:10314000000020E0E0200000000020E0E02000FF80
:10315000FF101010101010FFFF00101F1F100000B4
:103160000000101F1F100000202020E0E020202081
:1031700000000000000000FFFF0000000000000051
:103180001010101F1F101010000000000000202061
:1031900020E0E020202000000000000000FFFF00F1
:1031A00000000060E0808080C07F3F00000020E0E1
:1031B000E020000020A06020200000FFFF30187CED
:1031C000E3C000000000101F1F10000001131F1CAF
:1031D000181020E0E020000000000000000000FFC8
:1031E000FF000000000000000000101F1F10101062
:1031F00010101018060020E0E0E000000000E0E001
:10320000E02000FF013FFEC0E01E01FFFF00101F95
:103210001000031F0300101F1F1020E0E0C000007B
:1032200000000020E02000FF0003071C78E0800081
:10323000FF00101F100000000000030F1F0000001F
:1032400080C060202060C080000000FEFF01000000
:10325000000000FFFE000001070E181010180C07F8
:10326000010020E0E0202020202060C0800000FF3E
:10327000FF2020202020301F0F00101F1F100000F3
:10328000000000000000000080C060202060C080BE
:10329000000000FEFF010000000000FFFE00000132
:1032A000070E1111133C7C67210020E0E020202054
:1032B000202060C0800000FFFF101030F0D0080F09
:1032C0000700101F1F10000000030F1C10100080CB
:1032D000C060202020204040E00000070F0C18189C
:1032E000303060E08100001F0C0810101010180F23
:1032F00007008060202020E0E02020206080010086
:10330000000000FFFF000000000100000000101F8F
:103310001F100000000020E0E0200000000000205E
:10332000E02000FFFF00000000000000FF00000799
:103330000F1810101010100807002060E0E02000A7
:10334000000020E060200000077FF88000807C0300
:10335000000000000000071F1C070000000020E024
:10336000E02000E0E0200020E0200007FFF8E01F60
:10337000FFFCE01F00000000031F0300011F03000B
:103380000000002060E0A0000020E06020000000BD
:1033900000038F7CF8C6010000000010181E130007
:1033A00001171F1810002060E0E02000000020E05E
:1033B0006020000001073EF8E01807000000000050
:1033C0000010101F1F10100000000080602020203F
:1033D00020A0E0E0200000000000C0F03E0F03004D
:1033E000000000101C1F171010101018060000001D
:1033F000000000FC0404040404000000000000FFBE
:1034000000000000000000000000007F404040403D
:103410004000000010E0000000000000000000007C
:103420000000031C6080000000000000000000009D
:1034300000030C70800000000404040404FC00007D
:10344000000000000000000000FF0000000000007D
:1034500040404040407F0000000000000010080C89
:10346000040C081000000000000000000000000034
:10347000000000000000000000000000000000004C
:10348000000000000000000000000000000000003C
:10349000000000000000808080808080808080802C
:1034A0008080000000040408080000000000000004
:1034B000000000000000000000000000000000000C
:1034C00000000000000000000000000000000000FC
:1034D0000000000098D844642424FCF80000000F89
:1034E0001F18101010081F1F10180020E0F0000017
:1034F0000000000000000000FFFF180804040CF8A2
:10350000F00000001F0F18101010180F030000002B
:103510000000000000000000000000E0F8180404B3
:10352000043C3800000000030F0C101010100806B7
:1035300000000000000000000020E0F0000000E0BB
:10354000F81C04040408FFFF000000030F1810100B
:1035500010081F0F0800000000000000000000001D
:1035600000000000E0F8484444444C78700000003B
:10357000030F0C181010100804000000000080C099
:10358000602020E0C00000040404FFFF04040404E1
:103590000000000010101F1F10101000000000009D
:1035A00000000000000000000000000070F88C0423
:1035B000048CF874040C007076CF8D8D8D89C878DA
:1035C00070000020E0F0000000000000000000009B
:1035D000FFFF08040404FCF8000000101F1F100087
:1035E00000101F1F100000000000006060000000BD
:1035F00000000000040404FCFC00000000000000C7
:103600001010101F1F10101000000000000000001C
:1036100000606000000000000000040404FCFC00E6
:1036200000000000C0C08080C07F3F00000000207C
:10363000E0F000000000000000000000FFFF80C07C
:10364000F41C0404000000101F1F1100031F1C10B5
:1036500010000000202020E0F0000000000000002A
:10366000000000FFFF000000000000001010101F0D
:103670001F101010000000000000000000000000FB
:10368000000004FCFC0804FCFC0804FCFC00101F07
:103690001F10001F1F10001F1F100000000000005F
:1036A0000000000000000004FCFC08080404FCF812
:1036B000000000101F1F100000101F1F100000004E
:1036C0000000000000000000000000E0F0180C0402
:1036D000040C18F0E00000030F0C101010100C0F79
:1036E00003000000000000000000000000000004D3
:1036F000FCFC080404040CF8F0000080FFFF889034
:1037000010101C0F0300000000000000000000006B
:10371000000000E0F81C04040408F8FC00000003AA
:103720000F1810109088FFFF8000000000000000BC
:10373000000000000000040404FCFC100804040C59
:103740000C001010101F1F101010000000000000CF
:103750000000000000000000000000003078CCC431
:103760008484840C1C0000001E1810101011190F06
:1037700006000000000000C000000000000000047F
:103780000404FFFF040404000000000000000F1FF9
:103790001010100C000000000000000000000000ED
:1037A00000000004FCFE00000004FCFE000000001D
:1037B0000F1F181010081F0F080000000000000065
:1037C00000000000000000040C3CFCC40000C43CED
:1037D0000C0400000000010F1E0E0100000000009C
:1037E00000000000000000000000043CFCC400E4F5
:1037F0007CFC84807C040000071F070000071F0773
:1038000000000000000000000000000000000004B4
:10381000041C7CE4C0341C0404000010101C1601BD
:10382000131F1C1810000000000000000000000022
:10383000000000040C3CFCC400C43C040400000074
:10384000C080C1370E010000000000000000000031
:1038500000000000000000001C0404C4F47C1C04F0
:1038600000000000101C1F17111010180E0000009F
:103870000000000000F80C04000000000000001030
:1038800028EF00000000000000000000003F604042
:103890000000000000000000FF0000000000000029
:1038A00000000000FF000000000000000000000019
:1038B000FF00000000000000040CF8000000000001
:1038C000000000000000EF281000000000000000D1
:1038D00040603F00000000000000001806020204E3
:1038E0000810202030080000000000000000000048
:1038F0000000000000000000000000000000A1E641
:103900000006384442420400B0C20000FC0454E601
:1039100045F444E45404FC00000088884B482928FE
:10392000180D182829484B888800B4AB008060F82F
:1039300007404848E85F484848404000010000FF11
:103940000000020B1222D20A06000000B8D00000CC
:10395000FC04D4545454D4047F84C53604008866CF
:10396000010063828292AB8482C10224CF00C6F739
:1039700080809E9292929EE0809EB2D2929E800023
:103980000808F4949292F10001F2929494F80800DD
:10399000D1DD1060028C000CA4A4A5E6A4A4A40CA4
:1039A000000004047E0100804F2A0A0F0A2A4F807B
:1039B0000000CABE40404242424242C242424242EB
:1039C00042404000201008060040807F00000002B6
:1039D00004083000BDCC20A4A4A4FFA4B4288470A3
:1039E0008F0808F80800040A49887E0504844020EE
:1039F000130C33408000BEDF000000FE52525252D2
:103A0000525252FE000000000808884F2919090987
:103A10000919294F88080800383A000800000020DA
:103A200014000000101C00084C3A0008140000208C
:103A30000C090000201C000801000000100000001C
:0C3A4000000000000024F4000000000062
:0400000508000131BD
:00000001FF
