:020000040800F2
:10000000D0040020450100082F120008BF1000088E
:100010002D120008A90400081D16000800000000A9
:100020000000000000000000000000003312000883
:10003000D504000800000000311200083512000845
:100040005F0100085F0100085F0100085F01000810
:100050005F0100085F0100085F0100085F01000800
:100060005F0100085F0100085F0100085F010008F0
:100070005F0100085F0100085F0100085F010008E0
:100080005F0100085F0100085F0100085F010008D0
:100090005F0100085F0100085F0100085F010008C0
:1000A0005F0100085F0100085F0100085F010008B0
:1000B0005F0100085F0100085F0100085F010008A0
:1000C0005F0100085F0100085F0100085F01000890
:1000D0005F010008011600085F0100085F010008C9
:1000E0005F0100085F0100085F0100085F01000870
:1000F0005F0100085F0100085F0100085F01000860
:100100005F0100085F0100085F0100085F0100084F
:100110005F0100085F0100085F0100085F0100083F
:100120005F0100085F0100085F0100085F0100082F
:10013000DFF80CD000F06CF800480047151D0008EF
:10014000D00400200648804706480047FEE7FEE747
:10015000FEE7FEE7FEE7FEE7FEE7FEE7FEE7FEE777
:10016000A112000831010008202A04DB203A21FAFC
:1001700002F00021704721FA02F3D040C2F12002C0
:100180009140084319467047D2B201E000F8012BB4
:10019000491EFBD270470022F6E710B513460A4607
:1001A00004461946FFF7F0FF204610BD2DE9F05F29
:1001B0000546002092469B468846064681464024D6
:1001C0001BE02846414647462246FFF7CDFF5346EF
:1001D0005A46C01A914110D311461846224600F0E3
:1001E00029F82D1A67EB01084F462246012000210D
:1001F00000F020F817EB00094E41201EA4F1010485
:10020000DFDC484631462A464346BDE8F09F000001
:10021000064C074D06E0E06840F0010394E8070053
:1002200098471034AC42F6D3FFF786FF981D0008BC
:10023000B81D0008202A04DB203A00FA02F1002051
:1002400070479140C2F1200320FA03F31943904014
:100250007047000010B50D4C00224021204600F0F0
:10026000D4FA022001F002FD00228021204600F095
:10027000CCFA022001F0FAFC01224021204600F0D5
:10028000C4FABDE81040022001F0F0BC000C0140AF
:10029000104810B5816986B041F00801816180691C
:1002A0000D4C00F0080004904020009000200290C7
:1002B00001200190032003906946204600F0A4F934
:1002C00080200090112001906946204600F09CF9A2
:1002D00006B010BD00100240000C014010B50D4CDE
:1002E00000224021204600F090FA022001F0BEFCDE
:1002F00001228021204600F088FA022001F0B6FC9D
:1003000001224021204600F080FABDE81040022082
:1003100001F0ACBC000C01402DE9F041002508249F
:100320008046154E012718E001224021304600F09A
:100330006CFA022001F09AFC8021304600F060FA4D
:1003400018B107FA04F02843C5B200224021304614
:1003500000F05BFA022001F089FC641EE4B2E3D2F3
:10036000B8F1000F02D0FFF775FF01E0FFF7B6FF0D
:100370002846BDE8F0810000000C014070B506463B
:100380000824144D1BE000BF26FA04F0C00701D07A
:10039000012200E000228021284600F036FA0220E7
:1003A00001F064FC01224021284600F02EFA0220D0
:1003B00001F05CFC00224021284600F026FA641E71
:1003C000E4B2E1D22846BDE870400122802100F06D
:1003D0001CBA0000000C014010B5104C0122802115
:1003E000204600F012FA01224021204600F00DFACA
:1003F000022001F03BFC00228021204600F005FA9B
:10040000022001F033FC00224021204600F0FDF9DB
:10041000BDE81040022001F029BC0000000C0140A2
:1004200010B50C4C00228021204600F0EEF901228C
:100430004021204600F0E9F9022001F017FC0122DA
:100440008021204600F0E1F9BDE81040022001F0D3
:100450000DBC0000000C014010B5124C012280219F
:10046000204600F0D2F9022001F000FC01224021D8
:10047000204600F0CAF9022001F0F8FB8021204656
:1004800000F0BEF918B1FFF7CBFF002010BD00222D
:100490004021204600F0B9F9022001F0E7FB0120DD
:1004A00010BD0000000C0140FEE730B590F8405050
:1004B0000124AC40C56B6C60046863604368102B1A
:1004C000036803D099600068C26030BD9A6000681C
:1004D000C16030BD704710B590F82110002202298C
:1004E00005D00421816380F82020012010BD01681F
:1004F0000B6823F00E030B6001680B6823F0010307
:100500000B6090F84030C46B012101FA03F3636083
:1005100080F8211080F82020104610BD30B560B161
:100520001A4B026814219A4209D2194B1344B3FBA7
:10053000F1F18900016417490AE0012030BD134B35
:100540005B421344B3FBF1F1890001640F490839A0
:10055000C163022180F82110136843F6F0718B43C8
:10056000F0E901142143D0E902452C4321430469F9
:1005700021434469214384692143194311600021C7
:100580004163012242770177084630BD08040240EA
:10059000F8FFFDBF0000024070B5044690F820004F
:1005A000002501280CD0012084F8200094F8216057
:1005B0000020012E06D084F820000225284670BDB8
:1005C000022070BD022684F82160A06320680668BE
:1005D00026F0010606602046FFF767FFE06A002864
:1005E0002068016802D041F00E0106E021F004010C
:1005F00001602068016841F00A010160206801681B
:1006000041F001010160D9E72DE9F84FDFF8C89109
:100610000024A9F1040B23460F2709F1040AABF1CA
:10062000040ED1E00125A54006EA0502AA4276D1D2
:10063000DFF8A8C14E68A6EB0C0866452BD00DDC90
:10064000032E34D005DC36B3012E19D0022E2FD163
:100650001BE0112E16D0122E2AD119E0B8F5881FF2
:1006600019D006DCB8F5803F15D0B8F5801F1FD132
:1006700011E0B8F5001F0ED0B8F5041F18D10AE03C
:10068000CB6815E0CB681B1D12E0CB6808330FE088
:10069000CB680C330CE08B682BB1012B4FF00803B7
:1006A00003D0456104E0042302E0056100E000237B
:1006B000FF2A01D8064601E000F104064FEA84054E
:1006C00001D9A5F12005D6F8008007FA05FC28EA33
:1006D0000C0803FA05F548EA0508C6F800804D68DD
:1006E000ED0070D53E4DAE6946F00106AE61AD69D4
:1006F00024F0030605F0010500953A4D06EB050CC4
:10070000DCF80850A607360F07FA06F825EA0805B0
:10071000DFF8D480404503D14FF0000825E052E0D7
:10072000DFF8C880404502D14FF001081DE0DFF836
:10073000C080404502D14FF0020816E0DFF8B480D7
:10074000404502D14FF003080FE0DFF8AC80404590
:1007500002D14FF0040808E0DFF8A080404502D144
:100760004FF0050801E04FF0060808FA06F848EADD
:100770000508CCF808804D68D9F80060ED024D46B8
:1007800001D5164300E096432E604D68DAF800600C
:10079000AD02554601D5164300E096432E604D68E4
:1007A000DBF80060AD035D4601D5164300E09643DB
:1007B0002E604D68DEF80060ED03754601D51643E6
:1007C00000E096432E60641C0A681646E2407FF4FF
:1007D00029AFBDE8F88F00000804014000001110A7
:1007E000001002400000014000080140000C0140E0
:1007F000001001400014014000180140001C01409D
:100800008068084000D0012070470AB1016170473C
:100810000904FBE7014880687047000004000020DD
:10082000024881680278114481607047040000200A
:10083000074810B5016841F010010160032000F085
:1008400075F80F2000F006F800F024F8002010BD25
:100850000020024070B50D4D04464FF47A7128789F
:10086000B1FBF0F00A490968B1FBF0F000F0DCFAE6
:1008700048B9102C07D200222146501E00F036F84D
:1008800000206C6070BD012070BD000004000020DD
:10089000100000200C4808B5816941F00101816118
:1008A000816901F001010091C16941F08051C1618C
:1008B000C06900F0805000900448416821F0E06178
:1008C00041F00071416008BD00100240000001408D
:1008D000002809DB00F01F0201219140400980003F
:1008E00000F1E020C0F8001170470000F0B40E4B9A
:1008F0001B680C46C3F30223C3F10705042D00D97E
:100900000425191D072901D2002300E0DB1E012662
:1009100006FA05F1491E214099409E40761E164078
:100920003143F0BC00F08CBE0CED00E0064900F055
:10093000070208684FF6FF03184040EA0220034A06
:1009400010430860704700000CED00E00000FA055D
:100950002DE9F0470F46050061D0434E306800F0A6
:100960000700B84209D2306820F0070038433060F1
:10097000306800F00700B84251D128683B4C81072D
:1009800012D5400703D5606840F4E06060602878C5
:10099000000703D5606840F4605060606068A96833
:1009A00020F0F000084360602878C00728D068680D
:1009B000012810D02168022810D0890700292EDADA
:1009C000616821F0030101436160FFF723FF804666
:1009D00041F288390DE021688903EFE78901EDE7ED
:1009E000FFF718FFA0EB0801494502D90320BDE835
:1009F000F0876068696800F00C00B0EB810FEFD100
:100A0000306800F00700B8420BD9306820F00700CA
:100A100038433060306800F00700B84201D0012050
:100A2000E5E72878400705D56068E96820F4E060CC
:100A3000084360602878000706D56068296920F4BB
:100A4000605040EAC100606000F038F86168084A10
:100A5000C1F30311515CC8400649086006480068AC
:100A6000FFF7F8FE0020C2E700200240001002401D
:100A70007E1D0008100000200800002004480549E1
:100A800000684968044AC1F30221515CC8407047BC
:100A900010000020001002408E1D00080448054987
:100AA00000684968044AC1F3C221515CC8407047DC
:100AB00010000020001002408E1D00080E4A5168F0
:100AC0000E4801F00C03042B11D0082B0FD10C4859
:100AD000C1F38343C903C05C0AD55168084AC1F316
:100AE0004041921E515C054A5043B0FBF1F0704703
:100AF00004494843704700000010024000127A0089
:100B00006E1D000800093D002DE9F84F040070D06B
:100B10002078C04DC00749D06868C0F38100012823
:100B200007D06868C0F38100022809D16868C00353
:100B300006D52868800339D560680028E7D035E0FD
:100B40006068B0F5803F0BD010B1B0F5A02F11D088
:100B5000286820F480302860286820F4802002E093
:100B6000286840F480302860606890B1FFF752FE3A
:100B700006460AE0286840F480202860F0E700BFBD
:100B8000FFF748FE801B642873D828688003F7D5D8
:100B90000CE0FFF73FFE064605E000BFFFF73AFE18
:100BA000801B6428F0D828688003F7D420789A4EF8
:100BB00080074FF001094FF0000839D5686810F040
:100BC0000C0F07D06868C0F38100022809D168685B
:100BD000C00306D42868800714D52069012808D1ED
:100BE00010E02069B0B1C6F80090FFF713FE074689
:100BF00005E00AE1FFF70EFEC01B0228C4D82868F2
:100C00008007F7D52868616920F0F80040EAC10044
:100C100028600DE0C6F80080FFF7FCFD074604E001
:100C2000FFF7F8FDC01B022823D828688007F7D4F7
:100C3000207800072CD57948A169D9B1C0F8009077
:100C4000FFF7E8FD074604E0FFF7E4FDC01B0228BC
:100C50000FD8686A8007F7D571484FF4FA510068D9
:100C6000B0FBF1F0009000BF0098411E0091FAD255
:100C70000EE080E0C0F80080FFF7CCFD074604E0FE
:100C8000FFF7C8FDC01B022875D8686A8007F7D433
:100C90002078400760D5E8690027C00008D4E869DB
:100CA00040F08050E861E869012700F08050009032
:100CB0005C480168C90513D40168834641F480711A
:100CC0000160FFF7A7FD824606E000BFFFF7A2FD27
:100CD000A0EB0A0064284ED8DBF80000C005F5D56B
:100CE000E06801280AD008B1052813D0286A20F04E
:100CF00001002862286A20F0040002E0286A40F01F
:100D000001002862E06841F2883B98B1FFF782FD5C
:100D100082460BE0286A40F004002862EEE700BF3C
:100D2000FFF778FDA0EB0A0159455AD8286A8007D9
:100D3000F6D50CE0FFF76EFD824605E0FFF76AFD91
:100D4000A0EB0A0159454CD8286A8007F6D41FB198
:100D5000E86920F08050E861E06988B36968C1F310
:100D60008101022944D00228C6F8608004D0FFF730
:100D700051FD044638E034E0FFF74CFD074604E03F
:100D8000FFF748FDC01B02282BD828688001F7D444
:100D9000206AB0F5803F05D16868A16820F4003072
:100DA00008436860D4E908010843696821F47411B4
:100DB00008436860C6F86090FFF72CFD044606E023
:100DC00025E000BFFFF726FD001B022809D8286890
:100DD0008001F7D51BE000BFFFF71CFD001B0228B8
:100DE00002D90320BDE8F88F28688001F4D40EE012
:100DF0000128F7D06868226A00F48031914204D15A
:100E0000616A00F47010884201D00120EAE70020F6
:100E1000E8E7000000100240000042428004424225
:100E2000100000200070004010B5401EB0F1807F1F
:100E300001D3012010BD4FF0E02460610F21601745
:100E400000F0FEFB0020A06107202061002010BD03
:100E5000704710B504460068406994F84110C0F32B
:100E6000C010212911D180B12068143050E8001F32
:100E700021F0800140E80012002AF5D1A06B08B1F2
:100E8000FFF729FB204600F0AAFA2068406994F891
:100E90004210C0F38010222911D180B12068143093
:100EA00050E8001F21F0400140E80012002AF5D16F
:100EB000E06B08B1FFF70FFB204600F069FA002055
:100EC00010BD704770B5040004D094F841000025AF
:100ED00010B106E0012070BD84F84050204600F0BB
:100EE00023F8242084F841002068C16821F40051CF
:100EF000C160204600F0A4FA2068016921F4904105
:100F000001612068416921F02A0141612068C168BE
:100F100041F40051C1606564202084F8410084F8E8
:100F200042006563002070BD70B586B0002506469E
:100F3000009501950295039500682D49884255D189
:100F40002C49886940F480408861886900F48040B9
:100F50000490886940F004008861886900F004000A
:100F60000490886940F004008861886900F00400FA
:100F70000490486940F00100486148691E4C00F047
:100F80000100049048150090022001900320039076
:100F90000120029069462046FFF736FB2015CDE977
:100FA000000569462046FFF72FFB154C1348C4E99E
:100FB00000058020C4E9025020202561C4E90550C5
:100FC0002046E561FFF7AAFAF463002211462520C6
:100FD0006662FFF78BFC2520FFF77AFC00221146A2
:100FE0000F20FFF783FC0F20FFF772FC06B070BDE7
:100FF0000038014000100240000801405800024043
:101000008C00002090F84230202B01D00220704745
:1010100021B11AB10023036300F06EBA01207047BA
:10102000704770472DE9F843044690F841001F4689
:1010300016460D46202802D00220BDE8F8837DB177
:1010400076B100206064212084F84100FFF7E2FBC4
:10105000A6848046E684A068B0F5805F02D003E0F5
:101060000120EAE7206910B12E4600250EE0002697
:101070000CE08021204600F087FAA0B9AEB116F846
:10108000010B21684860E08C401EE084E08C434600
:101090004FF0000200970028EBD14FF040012046AE
:1010A00000F072FA30B10320C7E735F8020BC0F345
:1010B0000800E6E7202084F841000020BDE7FEE7B5
:1010C00070B50C460546FFF787F9A020FFF756F9E3
:1010D000FFF7C2F910B90AA000F0A2FA2846FFF7FC
:1010E0004DF9FFF7B9F910B909A000F099FA0020FD
:1010F000FFF712F92070FFF793F9002070BD000090
:101100006465762061646472204E61636B0D0A0031
:10111000656570726F6D2061646472204E61636BEF
:101120000D0A000070B50C460546097813A000F0C2
:1011300077FAFFF751F9A020FFF720F9FFF78CF9B4
:1011400010B913A000F06CFA2846FFF717F9FFF763
:1011500083F910B912A000F063FA2078FFF70EF9B6
:10116000FFF77AF910B913A000F05AFAFFF758F90F
:10117000BDE870400A2000F079BD00007772697404
:101180006520646174613A3078253032780D0A0048
:101190006465762061646472204E61636B0D0A00A1
:1011A000656570726F6D2061646472204E61636B5F
:1011B0000D0A000073656E6420646174204E6163E3
:1011C0006B0D0A000C4800B5816985B041F008013B
:1011D00081618069694600F0080004900120019057
:1011E0002320009000200290022003900348FFF784
:1011F0000BFA05B000BD000000100240000C0140D9
:10120000094808B5816941F004018161816901F0F3
:1012100004010091816941F008018161806900F059
:101220000800009008BD000000100240FEE7FEE745
:101230007047704710B5FFF7F3FABDE8104000F0B3
:101240000BBD30B58FB028216846FEF7A4FF1421EE
:101250000AA8FEF7A0FF01210804CDE90010002430
:10126000029402250491CDE907504FF4E010099053
:101270006846FFF749FC08B172B6FEE70F20CDE9DA
:101280000A054FF48060CDE90C4002210AA80E94B3
:10129000FFF75EFB002801D072B6FEE70FB030BD4D
:1012A000704770B5446A2068406994F84110C0F3F3
:1012B000C0100025212904D118B1E584204600F092
:1012C0008EF82068406994F84210C0F380102229FB
:1012D00004D118B1E585204600F05AF8606C40F062
:1012E000100060642046FFF7ECFD70BD10B50146AC
:1012F000406A096809684FF0000289062ED4C28549
:1013000001680C3151E8003F23F4807341E8003458
:10131000002CF5D10168143151E8003F23F001039E
:1013200041E80034002CF5D10168143151E8003F48
:1013300023F0400341E80034002CF5D1202180F84F
:101340004210016B012909D101680C3151E8003FBD
:1013500023F0100341E80034002CF5D14263016B07
:10136000012902D0FFF75CFE10BD818DFFF770FDF3
:1013700010BD10B5406A01214163016B012902D003
:10138000FFF74FFE10BD818D4908FFF761FD10BDCD
:1013900001680C3151E8002F22F4907241E80023DB
:1013A000002BF5D10168143151E8002F22F0010221
:1013B00041E80023002BF5D1016B012909D1016817
:1013C0000C3151E8002F22F0100241E80023002BDD
:1013D000F5D1202180F84210002101637047016897
:1013E0000C3151E8002F22F0C00241E80023002B0D
:1013F000F5D1202180F841107047000010B50F4C46
:101400000D48002120604FF4E130C4E90101216161
:101410000C20E160C4E905012046FFF753FD206878
:10142000C16841F01001C160A4F12C012046BDE863
:1014300010402822FFF7E6BD00380140440000209C
:1014400070B5044600680169E26821F44051114317
:1014500001612169A0680843616908432168CA687D
:1014600041F20C639A430243CA6020684169A26951
:1014700021F44071114341611E492068884202D124
:10148000FFF70CFB01E0FFF7F9FA00EBC00101EBFD
:101490000012606864218000B2FBF0F3B3FBF1F34B
:1014A0006FF018067343B2FBF0F5B2FBF0F605EBF4
:1014B0008305322303EB0515B5FBF1F5B6FBF1F619
:1014C00005F0F00505EB0615B2FBF0F6B2FBF0F007
:1014D000B0FBF1F06FF01802504306EB800003EB15
:1014E0000010B0FBF1F0216800F00F002844886084
:1014F00070BD00000038014038B581620446828525
:10150000002013466064222284F84220E56B1B4AC7
:10151000AA62E56B1A4AEA62E56B1A4A2A63E26B31
:1015200050630A462168E06B091DFFF735F8206813
:10153000016840680090206948B120680C3050E88C
:10154000001F41F4807140E80012002AF5D12068A4
:10155000143050E8001F41F0010140E80012002A59
:10156000F5D12068143050E8001F41F0400140E8F8
:101570000012002AF5D1002038BD0000ED1200084D
:1015800073130008A31200082DE9F041984617468E
:101590000E460446069D27E0681C25D02DB1FFF7B6
:1015A00039F9A0EB0800A8421ED920680C3050E899
:1015B000001F21F4D07140E80012002AF5D1206804
:1015C000143050E8001F21F0010140E80012002A09
:1015D000F5D1202084F8410084F84200002084F8EE
:1015E00040000320BDE8F0812068006836EA000072
:1015F00004D00020B842CFD00020F3E70120F9E763
:10160000054800680168C943C90604D46FF0100199
:10161000016000F049BB704744000020FEE7000075
:101620000FB4054B10B503A9044A029800F028F83E
:1016300010BC5DF814FB00007D1C000814000020A5
:101640000907090E002804DB00F1E02080F80014EF
:10165000704700F00F0000F1E02080F8141D704783
:1016600002E008C8121F08C1002AFAD1704770476B
:10167000002001E001C1121F002AFBD170470000C9
:101680002DE9FF4F8DB00F460546002606E02528C0
:101690000BD0DDE90F1290476D1C761C28780028CE
:1016A000F5D111B03046BDE8F08F0024A246A14626
:1016B0000122EC4900E0044315F8013F203B02FA07
:1016C00003F00842F7D128782A2810D06FF02F02B3
:1016D0002878A0F13001092914D80AEB8A0102EB1D
:1016E000410144F0020400EB010A6D1CF0E701CF58
:1016F0005FEA000A03D544F40054CAF1000A44F03A
:1017000002046D1C28782E2817D115F8010F44F01B
:1017100004042A280ED06FF02F022878A0F130019F
:1017200009290AD809EB890102EB410100EB010903
:101730006D1CF2E757F8049B6D1C28786C280FD0BD
:1017400006DC4C2817D068280DD06A2814D104E094
:10175000742810D07A280FD10DE044F400140AE068
:1017600044F4801401E044F440146978814202D1C9
:1017700004F580146D1C6D1C2A786E2A1FD00CDCB9
:10178000632A31D004DC002A8BD0582A11D1A3E07F
:10179000642A68D0692A0CD165E0732A2ED004DC53
:1017A0006F2A73D0702A04D19BE0752A6FD0782AF3
:1017B0006ED01046DDE90F129047761C50E1C4F35D
:1017C0000250022806D0032809D0042801CF09D0EE
:1017D000066045E101CFF117C0E9006140E101CFAA
:1017E00006803DE106703BE117F8040B8DF8000020
:1017F00000208DF80100EB46012003E057F804BB00
:101800004FF0FF3061074FF0000102D40DE008F106
:101810000101884649450FDA8045F8DB1BF80810BE
:101820000029F4D108E008F1010188468142FADB81
:101830001BF808100029F6D1DDE90F23AAEB0800F8
:101840008146214600F036F9304400EB080604E0FA
:10185000DDE90F121BF8010B9047B8F10108F7D230
:1018600021464846F7E00A21C4F302534FF0000B2B
:101870000891022B04D001CFC117032B09D00AE035
:10188000FF1D27F00707F7E8020108E032E01FE03C
:1018900020E000B2C117042B01D140B2C117031ED2
:1018A00071F1000307DA4FF0000CD0EB0C006CEB89
:1018B00001012D2302E0230504D52B238DF82430CC
:1018C000012303E0E30701D02023F7E7984658E01F
:1018D0000A2110E010210EE010204FF0000B0890BC
:1018E0000CE010214FF0000B44F004044FF0080905
:1018F000089103E008214FF0000B0891C4F3025354
:10190000022B04D001CF0021032B06D006E0FF1DDF
:1019100027F00707F7E8020103E080B2042B00D1AB
:10192000C0B24FF0000823072BD5702A07D0DDF88E
:1019300020C08CF0100C5CEA0B0C05D00EE04023AC
:101940008DF82430012308E050EA010306D030234B
:101950008DF824308DF8252002239846DDF820C02C
:101960008CF0080C5CEA0B0C0BD150EA010301D19E
:10197000630706D530238DF824304FF00108A9F114
:101980000109582A04D038A20B9208AA0A920BE047
:101990003AA2F9E75B46089AFEF708FC0B9B9B5CB2
:1019A0000A9A521E0A92137050EA0102F2D10A9862
:1019B000ADEB000000F1200B600702D524F4803469
:1019C00001E04FF00109D94502DDA9EB0B0000E071
:1019D000002000EB0B0141440890AAEB010AE00350
:1019E00006D4DDE90F232146504600F063F8064493
:1019F0004FF0000908E009A911F80900DDE90F120C
:101A0000904709F10109761CC145F4DBE0030CD5D0
:101A1000DDE90F232146504600F04CF8064404E06F
:101A2000DDE90F1230209047761C0899481E089077
:101A30000029F5DC08E00A980A990078491C0A9107
:101A4000DDE90F129047761CBBF10001ABF1010BF1
:101A5000F1DC21465046DDE90F2300F019F8064479
:101A60006D1C1BE60928010030313233343536371E
:101A700038396162636465660000000030313233DA
:101A8000343536373839414243444546000000007A
:101A90002DE9F041044600251E461746880404D46B
:101AA00005E039462020B0476D1C641EF9D5284654
:101AB000BDE8F0812DE9F041044600251E46904620
:101AC000C80301D5302700E02027880404D505E0AD
:101AD00041463846B0476D1C641EF9D52846BDE81E
:101AE000F081000038B569460020FFF7E9FA9DF85B
:101AF00000101CA0FFF794FD9DF80010481E04285C
:101B000003D31CA0FFF78CFD38BD234C012906D060
:101B100002290BD003294FF0010217D000E0002268
:101B200020212046FEF771FE012205E0012220213E
:101B30002046FEF76AFE002201212046FEF765FEE0
:101B4000012202212046FEF760FE38BD20212046FA
:101B5000FEF75BFE012211462046FEF756FE0022EC
:101B6000EFE70000636D64203D2030782530327847
:101B70000D0A0000636D643A3078253032582074C5
:101B80006F20736D616C6C206F7220746F206C61BC
:101B90007267650D0A000000000C014038B500F0C6
:101BA00079F801788DF8001021A0FFF739FD00F0D9
:101BB00075F8012806D900F071F8014620A0FFF75A
:101BC0002FFD38BD9DF80000411E0429F9D2214C9B
:101BD000012806D002280BD003284FF0010213D0B1
:101BE00000E0002220212046FEF70FFE012205E042
:101BF000012220212046FEF708FE00220121204676
:101C0000FEF703FE012209E020212046FEF7FDFD3C
:101C1000012211462046FEF7F8FD0022022120464F
:101C2000FEF7F3FD69460020FFF77CFA38BD00009F
:101C3000636D64203D203078253032780D0A000035
:101C400073697A653A256420746F6F206C6F6E67D4
:101C5000200D0A00000C014003480168002902D051
:101C60000168491E016070470000002002490860B9
:101C700008680028FCD170470000002013B54FF41D
:101C80007A73012269460248FFF7CCF900981CBD1F
:101C9000440000200048704718000020014890F8D8
:101CA000280070471800002010B51048FFF7D1F841
:101CB0000E484830006840680022C0F12800C1B2D8
:101CC0000A482C3880F828104254024690F8281010
:101CD00007A0FFF7A5FC054928222C390348FFF788
:101CE00091F9BDE81040FFF759BF00004400002003
:101CF000726563762064617461206C656E677468D8
:101D00003A2025642C20696E666F3A2025730D0AEF
:101D100000000000FEF78CFDFFF793FAFFF770FA62
:101D200000F014F8FFF74EFAFEF7B2FAFFF766FB81
:101D300002A0FFF775FCFFF7D5FEFEE75374617252
:101D400074204D43557E7E7E0D0A000070B5054C13
:101D5000054D2068B0FBF5F0FFF766F80028F8D1D4
:101D600070BD00001000002040420F00010202037D
:101D70000405060708090A0B0C0D0E0F10100000D1
:101D8000000000000000010203040607080900002B
:101D90000000010203040000B81D0008000000203C
:101DA0001800000060160008D01D00081800002070
:101DB000B8040000701600080000000001000000D8
:101DC00010000000000000000024F40000000000EB
:0400000508000131BD
:00000001FF
