:020000040800F2
:100000007005002045010008631700080717000865
:1000100061170008530200086D1E00080000000070
:100020000000000000000000000000008D1A000821
:100030008B02000800000000651700088F1A0008F6
:100040005F0100085F0100085F0100085F01000810
:100050005F0100085F0100085F0100085F01000800
:100060005F0100085F0100085F0100085F010008F0
:100070005F0100085F0100085F01000855020008E9
:100080005F0100085F0100085F0100085F010008D0
:100090005F0100085F0100085F0100085F010008C0
:1000A0005F0100085F0100085F0100085F010008B0
:1000B0005F0100085F0100085F0100085F010008A0
:1000C0005F0100085F0100085F0100085F01000890
:1000D0005F010008511E00085F0100085F01000871
:1000E0005F0100085F0100085F0100085F01000870
:1000F0005F0100085F0100085F0100085F01000860
:100100005F0100085F0100085F0100085F0100084F
:100110005F0100085F0100085F0100085F0100083F
:100120005F0100085F0100085F0100085F0100082F
:10013000DFF80CD000F06CF80048004729240008D4
:10014000700500200648804706480047FEE7FEE7A6
:10015000FEE7FEE7FEE7FEE7FEE7FEE7FEE7FEE777
:10016000F11A000831010008202A04DB203A21FAA4
:1001700002F00021704721FA02F3D040C2F12002C0
:100180009140084319467047D2B201E000F8012BB4
:10019000491EFBD270470022F6E710B513460A4607
:1001A00004461946FFF7F0FF204610BD2DE9F05F29
:1001B0000546002092469B468846064681464024D6
:1001C0001BE02846414647462246FFF7CDFF5346EF
:1001D0005A46C01A914110D311461846224600F0E3
:1001E00029F82D1A67EB01084F462246012000210D
:1001F00000F020F817EB00094E41201EA4F1010485
:10020000DFDC484631462A464346BDE8F09F000001
:10021000064C074D06E0E06840F0010394E8070053
:1002200098471034AC42F6D3FFF786FF402500080C
:1002300060250008202A04DB203A00FA02F10020A1
:1002400070479140C2F1200320FA03F31943904014
:100250007047FEE7014800F053B800001800002086
:1002600030B590F840500124AC40C56B6C60046818
:1002700063604368102B036803D099600068C26014
:1002800030BD9A600068C16030BD704701464FF4D0
:100290007A730122014800F091BE00001401002091
:1002A00001B54FF47A7301226946024800F031FF2C
:1002B00008BD00001401002010B590F821100022A4
:1002C000022905D00421816380F82020012010BD7F
:1002D00001680B6823F00E030B6001680B6823F0C4
:1002E00001030B6090F84030C46B012101FA03F365
:1002F000636080F8211080F82020104610BD0000B7
:100300002DE9F05FC16B0A6801680B68046C4FF05F
:10031000040808FA04F8844D844E854FDFF814C2AF
:10032000DFF81492DFF814A2DFF814B2DFF814E259
:1003300018EA020F65D05FEA437862D50A68920630
:1003400003D40A6822F004020A60DFF8F0814FF457
:100350008062016808F1140813011402414524D990
:10036000A9420DD0B1420FD0B9421AD0614515D083
:10037000494515D0514501D1120312E0594501D12B
:1003800004220EE0714501D140220AE06D4D143582
:10039000A94206D06B4A2832914201D11A4600E0A8
:1003A00022466749091F0A6029E0A94213D0B142D9
:1003B00015D0B94220D061451BD049451BD05145CD
:1003C00002D14FF4800217E0414502D14FF0806224
:1003D00012E0594501D104220EE0714501D14022BD
:1003E0000AE0584D1435A94206D0564A28329142A7
:1003F00001D11A4600E022464B4908394A60C16AD9
:1004000071E04FF0020808FA04F818EA020F70D001
:100410005FEA83786DD50A68920606D40A6822F0EE
:100420000A020A60012180F82110DFF810814FF4E0
:100430000072016808F1140813011402414524D91F
:10044000A9420DD0B1420FD0B9421AD0614515D0A2
:10045000494515D0514501D1120312E0594501D14A
:1004600002220EE0714501D120220AE0354D1435FB
:10047000A94206D0334A2832914201D11A4600E0FF
:1004800022462F49091F0A6029E0A94213D0B14230
:1004900015D0B94220D061451BD049451BD05145EC
:1004A00002D14FF4001217E0414502D14FF0007223
:1004B00012E0594501D102220EE0714501D12022FE
:1004C0000AE0204D1435A94206D01E4A2832914236
:1004D00001D11A4600E02246134908394A6000213A
:1004E00080F82010816A00291CD0BDE8F05F084721
:1004F000FFE70825A540154214D01A0712D50A684F
:1005000022F00E020A6090F84020C36B012101FA2C
:1005100002F25A60816380F82110002180F82010D7
:10052000016BE0E7BDE8F09F080002401C000240BC
:100530003000024044000240580002406C0002407B
:10054000080402401C04024030B560B11A4B026836
:1005500014219A4209D2194B1344B3FBF1F18900DB
:10056000016417490AE0012030BD134B5B4213447C
:10057000B3FBF1F1890001640F490839C16302211D
:1005800080F82110136843F6F0718B43F0E90114F1
:100590002143D0E902452C432143046921434469A6
:1005A00021438469214319431160002141630122E1
:1005B00042770177084630BD08040240F8FFFDBFCE
:1005C0000000024070B5044690F820000025012884
:1005D0000CD0012084F8200094F821600020012E26
:1005E00006D084F820000225284670BD022070BD88
:1005F000022684F82160A0632068066826F00106C0
:1006000006602046FFF72CFEE06A0028206801689B
:1006100002D041F00E0106E021F0040101602068E3
:10062000016841F00A0101602068016841F00101A0
:100630000160D9E770B5044600F00AF90546601C70
:1006400002D004480078044400F002F9401BA042A4
:10065000FAD370BD000000202DE9F84FDFF8C891F3
:100660000024A9F1040B23460F2709F1040AABF17A
:10067000040ED1E00125A54006EA0502AA4276D182
:10068000DFF8A8C14E68A6EB0C0866452BD00DDC40
:10069000032E34D005DC36B3012E19D0022E2FD113
:1006A0001BE0112E16D0122E2AD119E0B8F5881FA2
:1006B00019D006DCB8F5803F15D0B8F5801F1FD1E2
:1006C00011E0B8F5001F0ED0B8F5041F18D10AE0EC
:1006D000CB6815E0CB681B1D12E0CB6808330FE038
:1006E000CB680C330CE08B682BB1012B4FF0080367
:1006F00003D0456104E0042302E0056100E000232B
:10070000FF2A01D8064601E000F104064FEA8405FD
:1007100001D9A5F12005D6F8008007FA05FC28EAE2
:100720000C0803FA05F548EA0508C6F800804D688C
:10073000ED0070D53E4DAE6946F00106AE61AD6983
:1007400024F0030605F0010500953A4D06EB050C73
:10075000DCF80850A607360F07FA06F825EA080560
:10076000DFF8D480404503D14FF0000825E052E087
:10077000DFF8C880404502D14FF001081DE0DFF8E6
:10078000C080404502D14FF0020816E0DFF8B48087
:10079000404502D14FF003080FE0DFF8AC80404540
:1007A00002D14FF0040808E0DFF8A080404502D1F4
:1007B0004FF0050801E04FF0060808FA06F848EA8D
:1007C0000508CCF808804D68D9F80060ED024D4668
:1007D00001D5164300E096432E604D68DAF80060BC
:1007E000AD02554601D5164300E096432E604D6894
:1007F000DBF80060AD035D4601D5164300E096438B
:100800002E604D68DEF80060ED03754601D5164395
:1008100000E096432E60641C0A681646E2407FF4AE
:1008200029AFBDE8F88F0000080401400000111056
:10083000001002400000014000080140000C01408F
:10084000001001400014014000180140001C01404C
:10085000014880687047000000000020024881685D
:10086000027811448160704700000020074810B5ED
:10087000016841F010010160032000F075F80F20BD
:1008800000F006F800F024F8002010BD002002401F
:1008900070B50D4D04464FF47A712878B1FBF0F035
:1008A0000A490968B1FBF0F000F0E1FD48B9102CED
:1008B00007D200222146501E00F036F800206C605E
:1008C00070BD012070BD0000000000200C00002061
:1008D0000C4808B5816941F001018161816901F02D
:1008E00001010091C16941F08051C161C06900F00E
:1008F000805000900448416821F0E06141F00071AF
:10090000416008BD0010024000000140002809DBE2
:1009100000F01F02012191404009800000F1E02019
:10092000C0F8001170470000F0B40E4B1B680C4675
:10093000C3F30223C3F10705042D00D90425191DB3
:10094000072901D2002300E0DB1E012606FA05F18B
:10095000491E214099409E40761E16403143F0BC0E
:1009600001F096BA0CED00E0064900F007020868B5
:100970004FF6FF03184040EA0220034A1043086084
:10098000704700000CED00E00000FA052DE9F0478B
:100990000F46050061D0434E306800F00700B842B2
:1009A00009D2306820F0070038433060306800F02A
:1009B0000700B84251D128683B4C810712D5400747
:1009C00003D5606840F4E06060602878000703D5D4
:1009D000606840F4605060606068A96820F0F000D2
:1009E000084360602878C00728D06868012810D0C4
:1009F0002168022810D0890700292EDA616821F0C9
:100A0000030101436160FFF723FF804641F288390B
:100A10000DE021688903EFE78901EDE7FFF718FF93
:100A2000A0EB0801494502D90320BDE8F0876068C2
:100A3000696800F00C00B0EB810FEFD1306800F076
:100A40000700B8420BD9306820F007003843306007
:100A5000306800F00700B84201D00120E5E72878AF
:100A6000400705D56068E96820F4E06008436060ED
:100A70002878000706D56068296920F4605040EAAC
:100A8000C100606000F038F86168084AC1F30311E2
:100A9000515CC8400649086006480068FFF7F8FE48
:100AA0000020C2E700200240001002402625000876
:100AB0000C00002004000020044805490068496833
:100AC000044AC1F30221515CC84070470C00002069
:100AD00000100240362500080448054900684968AE
:100AE000044AC1F3C221515CC84070470C00002089
:100AF00000100240362500080E4A51680E4801F0E9
:100B00000C03042B11D0082B0FD10C48C1F38343E5
:100B1000C903C05C0AD55168084AC1F34041921E1E
:100B2000515C054A5043B0FBF1F07047044948431B
:100B3000704700000010024000127A0016250008DD
:100B400000093D002DE9F84F040070D02078C04D19
:100B5000C00749D06868C0F38100012807D06868E1
:100B6000C0F38100022809D16868C00306D528684F
:100B7000800339D560680028E7D035E06068B0F5BB
:100B8000803F0BD010B1B0F5A02F11D0286820F411
:100B900080302860286820F4802002E0286840F433
:100BA00080302860606890B1FFF752FE06460AE088
:100BB000286840F480202860F0E700BFFFF748FE77
:100BC000801B642873D828688003F7D50CE0FFF7F2
:100BD0003FFE064605E000BFFFF73AFE801B642893
:100BE000F0D828688003F7D420789A4E80074FF019
:100BF00001094FF0000839D5686810F00C0F07D0D4
:100C00006868C0F38100022809D16868C00306D46F
:100C10002868800714D52069012808D110E02069D0
:100C2000B0B1C6F80090FFF713FE074605E00AE1F1
:100C3000FFF70EFEC01B0228C4D828688007F7D52E
:100C40002868616920F0F80040EAC10028600DE0E2
:100C5000C6F80080FFF7FCFD074604E0FFF7F8FD4B
:100C6000C01B022823D828688007F7D42078000703
:100C70002CD57948A169D9B1C0F80090FFF7E8FDFB
:100C8000074604E0FFF7E4FDC01B02280FD8686A9E
:100C90008007F7D571484FF4FA510068B0FBF1F0C6
:100CA000009000BF0098411E0091FAD20EE080E053
:100CB000C0F80080FFF7CCFD074604E0FFF7C8FD51
:100CC000C01B022875D8686A8007F7D420784007CF
:100CD00060D5E8690027C00008D4E86940F080507A
:100CE000E861E869012700F0805000905C480168E5
:100CF000C90513D40168834641F480710160FFF790
:100D0000A7FD824606E000BFFFF7A2FDA0EB0A00A8
:100D100064284ED8DBF80000C005F5D5E06801284E
:100D20000AD008B1052813D0286A20F001002862F3
:100D3000286A20F0040002E0286A40F001002862DE
:100D4000E06841F2883B98B1FFF782FD82460BE0F4
:100D5000286A40F004002862EEE700BFFFF778FD44
:100D6000A0EB0A0159455AD8286A8007F6D50CE04D
:100D7000FFF76EFD824605E0FFF76AFDA0EB0A0172
:100D800059454CD8286A8007F6D41FB1E86920F08D
:100D90008050E861E06988B36968C1F38101022984
:100DA00044D00228C6F8608004D0FFF751FD044605
:100DB00038E034E0FFF74CFD074604E0FFF748FD5C
:100DC000C01B02282BD828688001F7D4206AB0F510
:100DD000803F05D16868A16820F40030084368604E
:100DE000D4E908010843696821F474110843686074
:100DF000C6F86090FFF72CFD044606E025E000BF32
:100E0000FFF726FD001B022809D828688001F7D5C6
:100E10001BE000BFFFF71CFD001B022802D90320C6
:100E2000BDE8F88F28688001F4D40EE00128F7D0DF
:100E30006868226A00F48031914204D1616A00F44A
:100E40007010884201D00120EAE70020E8E70000A6
:100E50000010024000004242800442420C00002088
:100E60000070004070B5040009D0606A002540B1F0
:100E700025616561A56294F8510040B10CE0012044
:100E800070BD6068B0F5827FF4D0E561F2E784F868
:100E90005050204600F040F8022084F851002068AD
:100EA000016821F040010160A088218900F482706E
:100EB00001F404410843A18901F400610843217C45
:100EC00001F002010843217D01F001010843218B5B
:100ED00001F400710843217F01F03801084394F8C0
:100EE000201001F080010843218D01F400510843D6
:100EF00021680860A069042101EA10402168486067
:100F00002068C16921F40061C1616565012084F830
:100F10005100002070BD000030B5254885B08169C2
:100F200041F004018161816901F00401049181694A
:100F300041F004018161816901F00401049181693A
:100F400041F004018161816901F00401049181692A
:100F500041F010018161816901F010010491816902
:100F600041F4805181618069012400F48050049033
:100F7000202000900220CDE9010403200D4D0390B4
:100F800069462846FFF768FB4020009069462846DE
:100F9000FFF762FB8020009069462846FFF75CFB64
:100FA0000094694604480194FFF756FB05B030BD34
:100FB0000010024000080140001001402DE9F84FE8
:100FC000044690F85100984616460F460025012821
:100FD00001D0022598E060684FF0040BB0F5827FE5
:100FE00001D1A068F8B194F85000012826D04FF044
:100FF000010984F85090FFF72BFC8246002F7FD028
:10100000002E7DD084F851B000206065A763A687CC
:10101000E6872063A086E08620646064A068B0F55F
:10102000004F0DD016E084F851B013460A46204612
:10103000CDF8008000F024F9BDE8F88F0220FBE72E
:101040002068016821F0400101602068016821F4F6
:101050008041016020680168490603D4016841F0BD
:1010600040010160E068D8B13BE020688168C907B1
:1010700009D0007BA16B0870A06B401CA063E08FBF
:10108000401EE0870CE0FFF7E3FBA0EB0A014145BF
:1010900003D3B8F1FF3F03D006E0B8F1000F03D04F
:1010A000E08F0028E1D11FE003252BE02068816854
:1010B000C90709D0C068A16B0880A06B801CA06321
:1010C000E08F401EE0870CE0FFF7C2FBA0EB0A01B7
:1010D000414503D3B8F1FF3F03D0E5E7B8F1000F76
:1010E000E2D0E08F0028E1D152464146204600F090
:1010F0003AFB08B120206065606D00E000E008B1B7
:10110000012501E084F85190002084F85000284621
:1011100092E72DE9F84F044690F8500000269846D3
:1011200015468A4601280CD0012784F85070FFF735
:101130008FFB814694F85100B346012804D0022663
:101140009AE00220BDE8F88FBAF1000F6FD0002DB1
:101150006DD0032084F85100C4F854B0C4F830A016
:10116000A586E586C4F838B0A4F83CB0A4F83EB033
:10117000C4F844B0C4F840B0A068B0F5004F09D13D
:101180002068016821F0400101602068016841F495
:101190008041016020680168490603D4016841F07C
:1011A00040010160E068B0F5006F606803D058B39B
:1011B000012D29D049E008B1012D1FD1206B2168F4
:1011C0000088C86006E020688168890709D5216B1E
:1011D0000988C160206B801C2063E08E401EE08681
:1011E0000CE0FFF735FBA0EB0901414503D3B8F153
:1011F000FF3F03D006E0B8F1000F03D0E08E0028D7
:10120000E1D125E0032635E0206B216800780873E2
:1012100006E02068816889070AD5216B0978017387
:10122000206B401C2063E08E401EE0860DE01FE036
:10123000FFF70EFBA0EB0901414503D3B8F1FF3FD7
:1012400003D0DFE7B8F1000FDCD0E08E0028E0D15A
:101250004A464146204600F0B4FA08B120206065B5
:10126000A06818B92068C16880680090606D08B1F6
:10127000012601E084F8517084F850B0304661E7EF
:101280002DE9FF4F81B0044690F8500000260E9FD4
:101290001D4693464FF0010901280FD04FF0010A77
:1012A00084F850A0FFF7D4FA804694F851006168A2
:1012B00001280DD0B1F5827F08D103E0022005B0EE
:1012C000BDE8F08FA16809B9042801D00226C9E061
:1012D0000298002865D0BBF1000FFBD0002DF9D09B
:1012E00094F85100042802D0052084F85100002011
:1012F0006065C4F838B0E587A58702992163E58663
:10130000A5862064606420680168490603D40168EA
:1013100041F040010160E068B0F5006F606803D003
:10132000F0B3012D47D081E008B1012D3CD1206BF5
:1013300021680088C860206B801C2063E08E401EFE
:10134000E08631E02068816889070FD5E18E69B1B8
:10135000B9F1010F0AD1216B0988C160206B801C93
:101360002063E08E401EE0864FF00009206881680F
:10137000C9070CD0E18F51B1C068A16B0880A06B88
:10138000801CA063E08F401EE0874FF00109FFF74B
:101390005FFAA0EB0800B84206D3781C04D001E045
:1013A00009E05BE003265BE0E08E0028CAD1E08F15
:1013B0000028C7D140E0206B216800780873206BBB
:1013C000401C2063E08E401EE0862FE0206881688C
:1013D00089070FD5E18E69B1B9F1010F0AD1216BEF
:1013E00009780173206B401C2063E08E401EE0866C
:1013F0004FF0000920688168C9070CD0E18F51B116
:10140000C068A16B0870A06B401CA063E08F401EF9
:10141000E0874FF00109FFF71BFAA0EB0800B84284
:1014200002D3781C02D0BAE7002FB8D0E08E002893
:10143000CCD1E08F0028C9D142463946204600F081
:10144000C0F918B10126202060650BE0A06818B92A
:101450002068C16880680090606D08B1012601E0D5
:1014600084F851A0002084F85000304627E710B5DA
:10147000401EB0F1807F01D3012010BD4FF0E02469
:1014800060610F21601700F003FD0020A0610720BC
:101490002061002010BD704710B504460068406907
:1014A00094F84110C0F3C010212911D180B12068F7
:1014B000143050E8001F21F0800140E80012002A9B
:1014C000F5D1A06B08B1FEF7F7FE204600F0AFFBA8
:1014D0002068406994F84210C0F38010222911D18D
:1014E00080B12068143050E8001F21F0400140E82E
:1014F0000012002AF5D1E06B08B1FEF7DDFE2046B0
:1015000000F06EFB002010BD704770B5040004D0E1
:1015100094F84100002510B106E0012070BD84F868
:101520004050204600F024F8242084F84100206830
:10153000C16821F40051C160204600F0A9FB206879
:10154000016921F4904101612068416921F02A017B
:1015500041612068C16841F40051C1606564202088
:1015600084F8410084F842006563002070BD0000EB
:1015700070B586B000250646009501950295039545
:1015800000682D49884255D12C49886940F4804033
:101590008861886900F480400490886940F0040004
:1015A0008861886900F004000490886940F00400B4
:1015B0008861886900F004000490486940F00100E7
:1015C000486148691E4C00F00100049048150090E5
:1015D00002200190032003900120029069462046DA
:1015E000FFF73AF82015CDE9000569462046FFF7D8
:1015F00033F8154C1348C4E900058020C4E90250B3
:1016000020202561C4E905502046E561FEF79CFFD6
:10161000F4630022114625206662FFF785F9252034
:10162000FFF774F9002211460F20FFF77DF90F2014
:10163000FFF76CF906B070BD0038014000100240A1
:101640000008014058000240D000002090F84230CD
:10165000202B01D00220704721B11AB1002303636F
:1016600000F072BB01207047704770472DE9F843C6
:10167000044690F841001F4616460D46202802D029
:101680000220BDE8F8837DB176B10020606421209E
:1016900084F84100FFF7DCF8A6848046E684A06861
:1016A000B0F5805F02D003E00120EAE7206910B1C5
:1016B0002E4600250EE000260CE08021204600F09A
:1016C0008BFBA0B9AEB116F8010B21684860E08C25
:1016D000401EE084E08C43464FF000020097002853
:1016E000EBD14FF04001204600F076FB30B10320F3
:1016F000C7E735F8020BC0F30800E6E7202084F8BE
:1017000041000020BDE7FEE70C4800B5816985B0C7
:1017100041F0080181618069694600F00800049089
:1017200001200190232000900020029002200390CD
:101730000348FEF791FF05B000BD00000010024015
:10174000000C0140054808B5816941F00401816140
:10175000806900F00400009008BD00000010024005
:10176000FEE7FEE77047F8B5044640684FF4827321
:10177000984217D1A0684FF48065B0F5004F01D0B2
:10178000A8420FD12068066826F04006066060680F
:10179000984207D1A068A84204D100920B460022CB
:1017A000012103E000920B4600228021204600F038
:1017B00011F9002804D0606D40F02000606503201E
:1017C000F8BD38B50B46009204460022802100F097
:1017D00001F9002804D0606D40F02000606503200E
:1017E00038BD000010B5114C0F48012120600820C1
:1017F000E06161610020A060022121610721C4E94C
:101800000A01E0604FF400712062A16160624FF450
:10181000827060602046FFF725FB2068016841F078
:101820004001016010BD00000030014014010020A3
:1018300038B500200C4C8DF800004FF4803020614A
:10184000AB20FEF72DFD6846FEF720FD6846FEF74B
:101850001DFD6846FEF71AFD6846FEF717FD0120DC
:1018600020619DF8000038BD001001403EB50E4CCF
:101870004FF4803020619F20FEF712FD6846FEF78E
:1018800005FD01A8FEF702FD02A8FEF7FFFC0120FE
:1018900020619DF800009DF80410000440EA01203A
:1018A0009DF8081008433EBD001001402DE9F041AD
:1018B00014460D46064600F053F800F03DF80E4F72
:1018C0004FF4803038610320FEF7EAFCC5F307408F
:1018D000FEF7E6FCC5F30720FEF7E2FCE8B2FEF7F0
:1018E000DFFC03E03046FEF7D1FC761C641EF9D223
:1018F00001203861BDE8F0810010014070B5044658
:1019000000F02EF80B4D4FF4803028612020FEF7B8
:10191000C7FCC4F30740FEF7C3FCC4F30720FEF77F
:10192000BFFCE0B2FEF7BCFC01202861BDE87040BE
:1019300000F002B80010014038B5084C4FF4803078
:1019400020610520FEF7ACFC6846FEF79FFC9DF881
:101950000000C007F5D10120206138BD0010014012
:1019600010B5054C4FF4803020610620FEF798FC3E
:101970000120206110BD0000001001402DE9F04160
:1019800014460D460646B2F5807F1ED8FFF7E8FFE5
:10199000FFF7D2FF0E4F4FF4803038610220FEF780
:1019A0007FFCC5F30740FEF77BFCC5F30720FEF77D
:1019B00077FCE8B2FEF774FC03E03078FEF770FCC9
:1019C000761C641EF9D201203861BDE8F081000068
:1019D000001001402DE9F8431E4691468846044612
:1019E000089DFEF735FF401B351AFEF731FF07460D
:1019F00025480068C0F3CB30684338E0701C37D00E
:101A0000FEF726FFC01BA84203D215B1009860B3B1
:101A10002CE02068416821F0E00141606068B0F589
:101A2000827F0BD1A068B0F5004F02D0B0F5806F77
:101A300004D12068016821F040010160A06AB0F57E
:101A4000005F09D12068016821F40051016020681D
:101A5000016841F400510160012084F85100002028
:101A600084F850000320BDE8F8830025401E009054
:101A70002068816838EA010004D000214945BDD1C1
:101A80000020F0E70121F9E70C0000207047FEF785
:101A9000E5BE30B58FB028216846FEF77CFB1421E7
:101AA0000AA8FEF778FB01210804CDE90010002404
:101AB000029402250491CDE907504FF4E0100990FB
:101AC0006846FFF73FF808B172B6FEE70F20CDE990
:101AD0000A054FF48060CDE90C4002210AA80E945B
:101AE000FEF754FF002801D072B6FEE70FB030BDFC
:101AF000704770B5446A2068406994F84110C0F39B
:101B0000C0100025212904D118B1E584204600F039
:101B10008EF82068406994F84210C0F380102229A2
:101B200004D118B1E585204600F05AF8606C40F009
:101B3000100060642046FFF7E7FC70BD10B5014659
:101B4000406A096809684FF0000289062ED4C285F0
:101B500001680C3151E8003F23F4807341E8003400
:101B6000002CF5D10168143151E8003F23F0010346
:101B700041E80034002CF5D10168143151E8003FF0
:101B800023F0400341E80034002CF5D1202180F8F7
:101B90004210016B012909D101680C3151E8003F65
:101BA00023F0100341E80034002CF5D14263016BAF
:101BB000012902D0FFF758FD10BD818DFFF76BFCA6
:101BC00010BD10B5406A01214163016B012902D0AB
:101BD000FFF74BFD10BD818D4908FFF75CFC10BD80
:101BE00001680C3151E8002F22F4907241E8002383
:101BF000002BF5D10168143151E8002F22F00102C9
:101C000041E80023002BF5D1016B012909D10168BE
:101C10000C3151E8002F22F0100241E80023002B84
:101C2000F5D1202180F8421000210163704701683E
:101C30000C3151E8002F22F0C00241E80023002BB4
:101C4000F5D1202180F841107047000010B50F4CED
:101C50000D48002120604FF4E130C4E90101216109
:101C60000C20E160C4E905012046FFF74EFC206826
:101C7000C16841F01001C160A4F12C012046BDE80B
:101C800010402822FFF7E2BC003801408800002005
:101C900070B5044600680169E26821F440511143BF
:101CA00001612169A0680843616908432168CA6825
:101CB00041F20C639A430243CA6020684169A269F9
:101CC00021F44071114341611E492068884202D1CC
:101CD000FEF702FF01E0FEF7EFFE00EBC00101EBB3
:101CE0000012606864218000B2FBF0F3B3FBF1F3F3
:101CF0006FF018067343B2FBF0F5B2FBF0F605EB9C
:101D00008305322303EB0515B5FBF1F5B6FBF1F6C0
:101D100005F0F00505EB0615B2FBF0F6B2FBF0F0AE
:101D2000B0FBF1F06FF01802504306EB800003EBBC
:101D30000010B0FBF1F0216800F00F00284488602B
:101D400070BD00000038014038B5816204468285CC
:101D5000002013466064222284F84220E56B1B4A6F
:101D6000AA62E56B1A4AEA62E56B1A4A2A63E26BD9
:101D700050630A462168E06B091DFEF723FC2068CA
:101D8000016840680090206948B120680C3050E834
:101D9000001F41F4807140E80012002AF5D120684C
:101DA000143050E8001F41F0010140E80012002A01
:101DB000F5D12068143050E8001F41F0400140E8A0
:101DC0000012002AF5D1002038BD00003D1B00089C
:101DD000C31B0008F31A00082DE9F0419846174686
:101DE0000E460446069D27E0681C25D02DB1FEF75F
:101DF0002FFDA0EB0800A8421ED920680C3050E847
:101E0000001F21F4D07140E80012002AF5D12068AB
:101E1000143050E8001F21F0010140E80012002AB0
:101E2000F5D1202084F8410084F84200002084F895
:101E300040000320BDE8F0812068006836EA000019
:101E400004D00020B842CFD00020F3E70120F9E70A
:101E5000054800680168C943C90604D46FF0100141
:101E6000016000F0ABBA704788000020FEE7000078
:101E70000FB4054B10B503A9044A029800F028F8E6
:101E800010BC5DF814FB0000912300081400002032
:101E90000907090E002804DB00F1E02080F8001497
:101EA000704700F00F0000F1E02080F8141D70472B
:101EB00002E008C8121F08C1002AFAD17047704713
:101EC000002001E001C1121F002AFBD17047000071
:101ED0002DE9FF4F8DB00F460546002606E0252868
:101EE0000BD0DDE90F1290476D1C761C2878002876
:101EF000F5D111B03046BDE8F08F0024A246A146CE
:101F00000122EC4900E0044315F8013F203B02FAAE
:101F100003F00842F7D128782A2810D06FF02F025A
:101F20002878A0F13001092914D80AEB8A0102EBC4
:101F3000410144F0020400EB010A6D1CF0E701CFFF
:101F40005FEA000A03D544F40054CAF1000A44F0E1
:101F500002046D1C28782E2817D115F8010F44F0C3
:101F600004042A280ED06FF02F022878A0F1300147
:101F700009290AD809EB890102EB410100EB0109AB
:101F80006D1CF2E757F8049B6D1C28786C280FD065
:101F900006DC4C2817D068280DD06A2814D104E03C
:101FA000742810D07A280FD10DE044F400140AE010
:101FB00044F4801401E044F440146978814202D171
:101FC00004F580146D1C6D1C2A786E2A1FD00CDC61
:101FD000632A31D004DC002A8BD0582A11D1A3E027
:101FE000642A68D0692A0CD165E0732A2ED004DCFB
:101FF0006F2A73D0702A04D19BE0752A6FD0782A9B
:102000006ED01046DDE90F129047761C50E1C4F304
:102010000250022806D0032809D0042801CF09D095
:10202000066045E101CFF117C0E9006140E101CF51
:1020300006803DE106703BE117F8040B8DF80000C7
:1020400000208DF80100EB46012003E057F804BBA7
:102050004FF0FF3061074FF0000102D40DE008F1AE
:102060000101884649450FDA8045F8DB1BF8081066
:102070000029F4D108E008F1010188468142FADB29
:102080001BF808100029F6D1DDE90F23AAEB0800A0
:102090008146214600F036F9304400EB080604E0A2
:1020A000DDE90F121BF8010B9047B8F10108F7D2D8
:1020B00021464846F7E00A21C4F302534FF0000BD3
:1020C0000891022B04D001CFC117032B09D00AE0DD
:1020D000FF1D27F00707F7E8020108E032E01FE0E4
:1020E00020E000B2C117042B01D140B2C117031E7A
:1020F00071F1000307DA4FF0000CD0EB0C006CEB31
:1021000001012D2302E0230504D52B238DF8243073
:10211000012303E0E30701D02023F7E7984658E0C6
:102120000A2110E010210EE010204FF0000B089063
:102130000CE010214FF0000B44F004044FF00809AC
:10214000089103E008214FF0000B0891C4F30253FB
:10215000022B04D001CF0021032B06D006E0FF1D87
:1021600027F00707F7E8020103E080B2042B00D153
:10217000C0B24FF0000823072BD5702A07D0DDF836
:1021800020C08CF0100C5CEA0B0C05D00EE0402354
:102190008DF82430012308E050EA010306D03023F3
:1021A0008DF824308DF8252002239846DDF820C0D4
:1021B0008CF0080C5CEA0B0C0BD150EA010301D146
:1021C000630706D530238DF824304FF00108A9F1BC
:1021D0000109582A04D038A20B9208AA0A920BE0EF
:1021E0003AA2F9E75B46089AFDF7E0FF0B9B9B5C80
:1021F0000A9A521E0A92137050EA0102F2D10A980A
:10220000ADEB000000F1200B600702D524F4803410
:1022100001E04FF00109D94502DDA9EB0B0000E018
:10222000002000EB0B0141440890AAEB010AE003F7
:1022300006D4DDE90F232146504600F063F806443A
:102240004FF0000908E009A911F80900DDE90F12B3
:10225000904709F10109761CC145F4DBE0030CD578
:10226000DDE90F232146504600F04CF8064404E017
:10227000DDE90F1230209047761C0899481E08901F
:102280000029F5DC08E00A980A990078491C0A91AF
:10229000DDE90F129047761CBBF10001ABF1010B99
:1022A000F1DC21465046DDE90F2300F019F8064421
:1022B0006D1C1BE6092801003031323334353637C6
:1022C0003839616263646566000000003031323382
:1022D0003435363738394142434445460000000022
:1022E0002DE9F041044600251E461746880404D413
:1022F00005E039462020B0476D1C641EF9D52846FC
:10230000BDE8F0812DE9F041044600251E469046C7
:10231000C80301D5302700E02027880404D505E054
:1023200041463846B0476D1C641EF9D52846BDE8C5
:10233000F081000010B500F037F804780AA02146BB
:10234000FFF796FD00F034F8012807D900F030F8C7
:102350000146BDE8104008A0FFF78ABD601E0428B2
:1023600001D20A48046010BD636D64203D203078BE
:10237000253032780D0A000073697A653A256420A9
:10238000746F6F206C6F6E67200D0A0010000020C4
:1023900013B54FF47A73012269460248FFF766F9D4
:1023A00000981CBD88000020004870475C00002099
:1023B000014890F8280070475C00002010B51048D4
:1023C000FFF76AF80E484830006840680022C0F104
:1023D0002800C1B20A482C3880F82810425402461E
:1023E00090F8281007A0FFF743FD054928222C3953
:1023F0000348FFF72BF9BDE81040FFF79BBF000033
:1024000088000020726563762064617461206C65C9
:102410006E6774683A2025642C20696E666F3A20D6
:1024200025730D0A0000000086B0FEF71FFAFFF7C3
:1024300030FBFFF787F9FFF767F9FFF707FCFFF7B6
:10244000D1F919A0FFF714FDFFF7F2F9014620A01A
:10245000FFF70EFD0A20FEF7EDF8FFF707FA014639
:1024600020A0FFF705FD24A203AB07CA83E80700FD
:102470000020009001900290FFF740FA0A2200210C
:1024800003A8FFF77BFA0A2200216846FFF70EFA3D
:1024900000246D4621462A5D1AA0FFF7E9FC641C62
:1024A0000A2CF7DBFEE70000616C6C20636F6D7037
:1024B0006F6E656E742068617665206265656E205A
:1024C000696E697469616C697A65640D0A0000005F
:1024D0006465766963652049443A202523780D0AAE
:1024E00000000000666C6173682049443A2030782F
:1024F00025580D0A000000000B0C0D0E0F060708F2
:10250000090A0000696E6465782025643A20256414
:102510000D0A0000010202030405060708090A0B60
:102520000C0D0E0F10100000000000000000010252
:10253000030406070809000000000102030400006C
:10254000602500080000002018000000B01E0008F0
:10255000782500081800002058050000C01E00085B
:102560000100000010000000000000000024F40042
:08257000010000000000000062
:0400000508000131BD
:00000001FF
