:020000040800F2
:1000000028050020450100084B1B00087B1500084F
:10001000491B0008530200082D1F000800000000C3
:100020000000000000000000000000004F1B00085E
:100030007F020008000000004D1B0008511B000853
:100040005F0100085F0100085F0100085F01000810
:100050005F0100085F0100085F0100085F01000800
:100060005F0100085F0100085F0100085F010008F0
:100070005F0100085F0100085F0100085F010008E0
:100080005F0100085F0100085F0100085F010008D0
:100090005F0100085F0100085F0100085F010008C0
:1000A0005F0100085F0100085F0100085F010008B0
:1000B0005F0100085F0100085F0100085F010008A0
:1000C0005F0100085F0100085F0100085F01000890
:1000D0005F010008111F00085F0100085F010008B0
:1000E0005F0100085F0100085F0100085F01000870
:1000F0005F0100085F0100085F0100085F01000860
:100100005F0100085F0100085F0100085F0100084F
:100110005F0100085F0100085F0100085F0100083F
:100120005F0100085F0100085F0100085F0100082F
:10013000DFF80CD000F06CF8004800476926000892
:10014000280500200648804706480047FEE7FEE7EE
:10015000FEE7FEE7FEE7FEE7FEE7FEE7FEE7FEE777
:10016000B31B000831010008202A04DB203A21FAE1
:1001700002F00021704721FA02F3D040C2F12002C0
:100180009140084319467047D2B201E000F8012BB4
:10019000491EFBD270470022F6E710B513460A4607
:1001A00004461946FFF7F0FF204610BD2DE9F05F29
:1001B0000546002092469B468846064681464024D6
:1001C0001BE02846414647462246FFF7CDFF5346EF
:1001D0005A46C01A914110D311461846224600F0E3
:1001E00029F82D1A67EB01084F462246012000210D
:1001F00000F020F817EB00094E41201EA4F1010485
:10020000DFDC484631462A464346BDE8F09F000001
:10021000064C074D06E0E06840F0010394E8070053
:1002200098471034AC42F6D3FFF786FFEC2600085F
:100230000C270008202A04DB203A00FA02F10020F3
:1002400070479140C2F1200320FA03F31943904014
:100250007047FEE730B590F840500124AC40C56BC4
:100260006C60046863604368102B036803D0996076
:100270000068C26030BD9A600068C16030BD7047E0
:1002800010B590F821100022022905D004218163C5
:1002900080F82020012010BD01680B6823F00E03B8
:1002A0000B6001680B6823F001030B6090F840308D
:1002B000C46B012101FA03F3636080F8211080F818
:1002C0002020104610BD000030B560B11A4B026806
:1002D00014219A4209D2194B1344B3FBF1F189005E
:1002E000016417490AE0012030BD134B5B421344FF
:1002F000B3FBF1F1890001640F490839C1630221A0
:1003000080F82110136843F6F0718B43F0E9011473
:100310002143D0E902452C43214304692143446928
:100320002143846921431943116000214163012263
:1003300042770177084630BD08040240F8FFFDBF50
:100340000000024070B5044690F820000025012806
:100350000CD0012084F8200094F821600020012EA8
:1003600006D084F820000225284670BD022070BD0A
:10037000022684F82160A0632068066826F0010642
:1003800006602046FFF766FFE06A002820680168E3
:1003900002D041F00E0106E021F004010160206866
:1003A000016841F00A0101602068016841F0010123
:1003B0000160D9E770B5044600F010F90546601CED
:1003C00002D004480078044400F008F9401BA04221
:1003D000FAD370BD040000202DE9F84FDFF8C89172
:1003E0000024A9F1040B23460F2709F1040AABF1FD
:1003F000040ED1E00125A54006EA0502AA4276D105
:10040000DFF8A8C14E68A6EB0C0866452BD00DDCC2
:10041000032E34D005DC36B3012E19D0022E2FD195
:100420001BE0112E16D0122E2AD119E0B8F5881F24
:1004300019D006DCB8F5803F15D0B8F5801F1FD164
:1004400011E0B8F5001F0ED0B8F5041F18D10AE06E
:10045000CB6815E0CB681B1D12E0CB6808330FE0BA
:10046000CB680C330CE08B682BB1012B4FF00803E9
:1004700003D0456104E0042302E0056100E00023AD
:10048000FF2A01D8064601E000F104064FEA840580
:1004900001D9A5F12005D6F8008007FA05FC28EA65
:1004A0000C0803FA05F548EA0508C6F800804D680F
:1004B000ED0070D53E4DAE6946F00106AE61AD6906
:1004C00024F0030605F0010500953A4D06EB050CF6
:1004D000DCF80850A607360F07FA06F825EA0805E3
:1004E000DFF8D480404503D14FF0000825E052E00A
:1004F000DFF8C880404502D14FF001081DE0DFF869
:10050000C080404502D14FF0020816E0DFF8B48009
:10051000404502D14FF003080FE0DFF8AC804045C2
:1005200002D14FF0040808E0DFF8A080404502D176
:100530004FF0050801E04FF0060808FA06F848EA0F
:100540000508CCF808804D68D9F80060ED024D46EA
:1005500001D5164300E096432E604D68DAF800603E
:10056000AD02554601D5164300E096432E604D6816
:10057000DBF80060AD035D4601D5164300E096430D
:100580002E604D68DEF80060ED03754601D5164318
:1005900000E096432E60641C0A681646E2407FF431
:1005A00029AFBDE8F88F00000804014000001110D9
:1005B000001002400000014000080140000C014012
:1005C000001001400014014000180140001C0140CF
:1005D0000AB1016170470904FBE700000148806827
:1005E000704700000400002090F83D0070470000B4
:1005F00070B5040025D094F83D00002520B984F89A
:100600003C50204600F02EFB242084F83D0020685A
:10061000016821F0010101602068016841F4004196
:1006200001602068016821F40041016000F084FC51
:100630004D4A6168914201D84C4900E04C498842DA
:1006400001D2012070BD4B492368B0FBF1F15E6817
:1006500026F03F060E435E606368934206D94FF46E
:10066000967359434FF47A73B1FBF3F12368491C35
:100670001E6A26F03F06314319626168914210D824
:100680004900401EB0FBF1F2521CC2F30B02042AD7
:1006900001D2042022E0B0FBF1F0401CC0F30B00BB
:1006A0001CE0A268F2B301EBC10303EB0116431E89
:1006B000B3FBF6F35B1C43F480431B0549D092B3B4
:1006C00001EBC10202EB0111401EB0FBF1F0401C36
:1006D000C0F30B0040F4804040F400402168CA6938
:1006E0004CF6FF739A431043C861D4E907100143E5
:1006F0002068026822F0C00211430160D4E90301BE
:1007000001432068826848F2FF339A4311438160B5
:10071000D4E9050108432168CA6822F0FF021043AA
:10072000C86001E00EE016E02068016841F00101B8
:1007300001602564202084F83D00256384F83E5044
:10074000002070BD01EB4106431EB3FBF6F35B1CBA
:10075000B3E70120C2E701EB4101401EB0FBF1F01D
:10076000401CC0F30B00B7E7A086010080841E0088
:1007700000093D0040420F002DE9FF4F81B089463E
:100780000446FFF72BFF054694F83D004FF00008A4
:1007900020287DD11923012250492046009501F0DF
:1007A00003F8002874D194F83C00012870D001208F
:1007B00084F83C0020680168C90703D1016841F052
:1007C000010101602068016821F4006101602420BA
:1007D00084F83D00002626644148E0624FF0011B8A
:1007E00020272068016841F4807101600095002293
:1007F00059462046049B00F0D7FF50B1206800689E
:10080000C00502D54FF400702064032005B0BDE898
:10081000F08F216809F0FE000861FFF7DFFE216814
:10082000054648694969C0F34000C1F380214FF093
:10083000A00A0FE0FFF7D2FE411B0498814200D8C6
:1008400008B984F83DA0216848694969C0F34000AF
:10085000C1F3802194F83D20A02A02D008B90029D4
:10086000E8D084F83D7020684169C943890716D4EF
:10087000016841F4007101602068416980691923B1
:10088000012216492046009500F08EFFB8B900E01D
:1008900021E084F83D7084F83C600020B6E70168F0
:1008A00041F40071016021686FF480604861192390
:1008B00001220A492046009500F076FF08B1012088
:1008C000A4E7039808F1010880458AD384F83D70B5
:1008D00084F83C60F3E7022098E700000200100073
:1008E0000000FFFF2DE9FF4F83B00025DDE91079FF
:1008F0009A4693460446DDF848800095FFF76EFE61
:10090000064694F83D0020287CD119230122854910
:100910002046009600F048FF0028F5D194F83C00EE
:1009200001286FD0012084F83C0020680168C907C5
:1009300003D1016841F0010101602068016821F4E0
:1009400000610160222084F83D00402084F83E00D0
:1009500025646762A4F82A90608D20857248E06261
:10096000CDE9008653465A462046049900F01EFE03
:1009700000287DD1208DDFF8B491202768B10128AF
:1009800014D00228206801681ED041F48061016003
:100990002068416980690090B6E0206841698169FA
:1009A0000091016841F400710160ADE020680168C8
:1009B00021F48061016072B620684169816900910B
:1009C000016841F400710AE041F40061016072B60F
:1009D0002068416981690091016821F480610160AA
:1009E00062B691E0032868D801280CD0022843465B
:1009F0004FF000024946204600960FD000F0D4FE8A
:100A0000B0BB10E08BE032464146204600F072FF5A
:100A100070BB20680069616A08706CE000F0C4FE79
:100A200030BB72B634E02068016821F48061016057
:100A300072B620680069616A0870606A401C606272
:100A4000208D401E2085608D401E6085384846F20E
:100A5000A8110068B0FBF1F0C0EBC00000EB800013
:100A60000090401E009008D020684069C04300E01C
:100A700029E040070CD50098F3E744F8305F67732E
:100A8000A573206940F02000206162B625731AE04A
:100A90002068016841F40071016020680069616AA2
:100AA0000870606A401C6062218D491E2185618D3D
:100AB000491E618562B621681BE0324641462046E8
:100AC00000F018FF18B1012007B0BDE8F08F2068D2
:100AD0000069616A0870606A401C6062218D491E6D
:100AE0002185618D491E618521684A69D24352077B
:100AF0000AD409690170606A401C6062208D401E42
:100B00002085608D401E6085208D00287FF46AAFAF
:100B100084F83D7084F83E5084F83C50D4E70220BD
:100B2000D2E70000020010000000FFFF04000100F7
:100B3000100000202DE9FF4F83B09A46DDE91197A0
:100B400093460446DDF84080FFF748FD054694F8DB
:100B50003D0020287FD119230122404920460095DD
:100B600000F022FE002876D194F83C00012872D0D3
:100B7000012084F83C0020680168C90703D101689E
:100B800041F0010101602068016821F40061016009
:100B9000212084F83D00402084F83E000026266491
:100BA000C4F82480A4F82A90608D20852C48E06247
:100BB000CDE9007553465A462046049900F074FD6D
:100BC00070B930E02A463946204600F0CBFE58B1D5
:100BD000206C042804D12068016841F40071016090
:100BE000012007B0BDE8F08F606A216800780861D5
:100BF000606A401C6062218D491E89B22185628D28
:100C0000521E628522685369DB435B070BD469B1CE
:100C100000781061606A401C6062208D401E208553
:100C2000608D401E6085208D0028CBD12A46394634
:100C3000204600F08DFD0028CAD154F83D0B016814
:100C400041F400710160202004F81E09E677667700
:100C50000020C6E7FFE70220C3E700000200100003
:100C60000000FFFF30B585B01A4C00200290E0690B
:100C700040F40010E061E06900F400100490A06905
:100C800040F00800A061A06900F008000490A0698D
:100C900040F00800A061A0690F4D00F0080004902A
:100CA00040200090122001900320039069462846BE
:100CB000FFF792FB8020009069462846FFF78CFBE7
:100CC000206940F400102061206920F400102061A8
:100CD00005B030BD00100240000C014002488168A0
:100CE000027811448160704704000020074810B565
:100CF000016841F010010160032000F075F80F2039
:100D000000F006F800F024F8002010BD002002409A
:100D100070B50D4D04464FF47A712878B1FBF0F0B0
:100D20000A490968B1FBF0F000F0DCFA48B9102C70
:100D300007D200222146501E00F036F800206C60D9
:100D400070BD012070BD00000400002010000020D4
:100D50000C4808B5816941F001018161816901F0A8
:100D600001010091C16941F08051C161C06900F089
:100D7000805000900448416821F0E06141F000712A
:100D8000416008BD0010024000000140002809DB5E
:100D900000F01F02012191404009800000F1E02095
:100DA000C0F8001170470000F0B40E4B1B680C46F1
:100DB000C3F30223C3F10705042D00D90425191D2F
:100DC000072901D2002300E0DB1E012606FA05F107
:100DD000491E214099409E40761E16403143F0BC8A
:100DE00001F0B6B80CED00E0064900F00702086813
:100DF0004FF6FF03184040EA0220034A1043086000
:100E0000704700000CED00E00000FA052DE9F04706
:100E10000F46050061D0434E306800F00700B8422D
:100E200009D2306820F0070038433060306800F0A5
:100E30000700B84251D128683B4C810712D54007C2
:100E400003D5606840F4E06060602878000703D54F
:100E5000606840F4605060606068A96820F0F0004D
:100E6000084360602878C00728D06868012810D03F
:100E70002168022810D0890700292EDA616821F044
:100E8000030101436160FFF7A9FB804641F2883905
:100E90000DE021688903EFE78901EDE7FFF79EFB8D
:100EA000A0EB0801494502D90320BDE8F08760683E
:100EB000696800F00C00B0EB810FEFD1306800F0F2
:100EC0000700B8420BD9306820F007003843306083
:100ED000306800F00700B84201D00120E5E728782B
:100EE000400705D56068E96820F4E0600843606069
:100EF0002878000706D56068296920F4605040EA28
:100F0000C100606000F038F86168084AC1F303115D
:100F1000515CC8400649086006480068FFF7F8FEC3
:100F20000020C2E70020024000100240D326000843
:100F300010000020080000200448054900684968A6
:100F4000044AC1F30221515CC840704710000020E0
:100F500000100240E326000804480549006849687B
:100F6000044AC1F3C221515CC84070471000002000
:100F700000100240E32600080E4A51680E4801F0B6
:100F80000C03042B11D0082B0FD10C48C1F3834361
:100F9000C903C05C0AD55168084AC1F34041921E9A
:100FA000515C054A5043B0FBF1F070470449484397
:100FB000704700000010024000127A00C3260008AB
:100FC00000093D002DE9F84F040070D02078C04D95
:100FD000C00749D06868C0F38100012807D068685D
:100FE000C0F38100022809D16868C00306D52868CB
:100FF000800339D560680028E7D035E06068B0F537
:10100000803F0BD010B1B0F5A02F11D0286820F48C
:1010100080302860286820F4802002E0286840F4AE
:1010200080302860606890B1FFF7D8FA06460AE081
:10103000286840F480202860F0E700BFFFF7CEFA70
:10104000801B642873D828688003F7D50CE0FFF76D
:10105000C5FA064605E000BFFFF7C0FA801B64280A
:10106000F0D828688003F7D420789A4E80074FF094
:1010700001094FF0000839D5686810F00C0F07D04F
:101080006868C0F38100022809D16868C00306D4EB
:101090002868800714D52069012808D110E020694C
:1010A000B0B1C6F80090FFF799FA074605E00AE1EB
:1010B000FFF794FAC01B0228C4D828688007F7D528
:1010C0002868616920F0F80040EAC10028600DE05E
:1010D000C6F80080FFF782FA074604E0FFF77EFAC1
:1010E000C01B022823D828688007F7D4207800077F
:1010F0002CD57948A169D9B1C0F80090FFF76EFAF4
:10110000074604E0FFF76AFAC01B02280FD8686A96
:101110008007F7D571484FF4FA510068B0FBF1F041
:10112000009000BF0098411E0091FAD20EE080E0CE
:10113000C0F80080FFF752FA074604E0FFF74EFAC6
:10114000C01B022875D8686A8007F7D4207840074A
:1011500060D5E8690027C00008D4E86940F08050F5
:10116000E861E869012700F0805000905C48016860
:10117000C90513D40168834641F480710160FFF70B
:101180002DFA824606E000BFFFF728FAA0EB0A001E
:1011900064284ED8DBF80000C005F5D5E0680128CA
:1011A0000AD008B1052813D0286A20F0010028626F
:1011B000286A20F0040002E0286A40F0010028625A
:1011C000E06841F2883B98B1FFF708FA82460BE0ED
:1011D000286A40F004002862EEE700BFFFF7FEF93E
:1011E000A0EB0A0159455AD8286A8007F6D50CE0C9
:1011F000FFF7F4F9824605E0FFF7F0F9A0EB0A01EA
:1012000059454CD8286A8007F6D41FB1E86920F008
:101210008050E861E06988B36968C1F381010229FF
:1012200044D00228C6F8608004D0FFF7D7F90446FE
:1012300038E034E0FFF7D2F9074604E0FFF7CEF9D3
:10124000C01B02282BD828688001F7D4206AB0F58B
:10125000803F05D16868A16820F4003008436860C9
:10126000D4E908010843696821F4741108436860EF
:10127000C6F86090FFF7B2F9044606E025E000BF2B
:10128000FFF7ACF9001B022809D828688001F7D5C0
:101290001BE000BFFFF7A2F9001B022802D90320C0
:1012A000BDE8F88F28688001F4D40EE00128F7D05B
:1012B0006868226A00F48031914204D1616A00F4C6
:1012C0007010884201D00120EAE70020E8E7000022
:1012D0000010024000004242800442421000002000
:1012E0000070004010B5401EB0F1807F01D3012096
:1012F00010BD4FF0E02460610F21601700F028FE60
:101300000020A06107202061002010BD704710B5AB
:1013100004460068406994F84110C0F3C0102129C8
:1013200011D180B12068143050E8001F21F08001F5
:1013300040E80012002AF5D1A06B08B1FEF7A0FF2B
:10134000204600F0D5FC2068406994F84210C0F3B4
:101350008010222911D180B12068143050E8001F7C
:1013600021F0400140E80012002AF5D1E06B08B1FD
:10137000FEF786FF204600F094FC002010BD704769
:1013800070B5040004D094F84100002510B106E0C7
:10139000012070BD84F84050204600F023F824203E
:1013A00084F841002068C16821F40051C1602046E2
:1013B00000F0CEFC2068016921F4904101612068B1
:1013C000416921F02A0141612068C16841F400515E
:1013D000C1606564202084F8410084F842006563A0
:1013E000002070BD70B586B00025064600950195B9
:1013F0000295039500682D49884255D12C4988698A
:1014000040F480408861886900F4804004908869D5
:1014100040F004008861886900F004000490886945
:1014200040F004008861886900F004000490486975
:1014300040F00100486148691E4C00F00100049032
:101440004815009002200190032003900120029093
:1014500069462046FEF7C0FF2015CDE90005694624
:101460002046FEF7B9FF154C1348C4E9000580205B
:10147000C4E9025020202561C4E905502046E561F9
:10148000FEF722FFF4630022114625206662FFF773
:101490008BFC2520FFF77AFC002211460F20FFF776
:1014A00083FC0F20FFF772FC06B070BD00380140CE
:1014B000001002400008014058000240E0000020F7
:1014C00090F84230202B01D00220704721B11AB190
:1014D0000023036300F098BC0120704770477047F9
:1014E0002DE9F843044690F841001F4616460D4684
:1014F000202802D00220BDE8F8837DB176B100201B
:101500006064212084F84100FFF768F8A6848046D3
:10151000E684A068B0F5805F02D003E00120EAE72E
:10152000206910B12E4600250EE000260CE0802137
:10153000204600F0B1FCA0B9AEB116F8010B21684D
:101540004860E08C401EE084E08C43464FF000028F
:1015500000970028EBD14FF04001204600F09CFCA2
:1015600030B10320C7E735F8020BC0F30800E6E707
:10157000202084F841000020BDE7FEE701684A69A9
:10158000D24352050FD46FF480624A61002140F8C3
:10159000301F202242738173026942F0040202610B
:1015A0000173012070470020704700002DE9F84FBB
:1015B0000446006889460B9D01689846174641F429
:1015C000806101602068016841F4807101600095CC
:1015D0004FF0011B0022594620460A9B00F0E4F818
:1015E0004FF4007A40B120680068C00501D5C4F806
:1015F00040A00320BDE8F88F216809F0FE000861D3
:101600002B46284920460A9A00F016F9F0BB2068BC
:101610004169806900902A4620460A9900F0A2F9A3
:1016200040B1206C04283AD12068016841F400716F
:10163000016034E0FEB2B8F1010F09D02168380A28
:1016400008612A4620460A9900F08CF90028E8D162
:10165000206806612A4620460A9900F083F900288E
:10166000DFD12068016841F480710160009500229B
:10167000594620460A9B00F097F80028B3D121680C
:1016800009F0FF0040F00100086100E007E02B4690
:10169000044920460A9A00F0CFF80028AAD0012079
:1016A000A8E70000020001002DE9F84304460068A5
:1016B0000D46DDE9089701689846164641F48071A9
:1016C00001604B4600224FF001112046009700F0C8
:1016D0006BF848B120680068C00502D54FF400706F
:1016E00020640320BDE8F883216805F0FE0008614E
:1016F0003B464A461549204600F09EF888B92068C6
:101700004169806900903A464946204600F02AF92E
:1017100048B1206C042804D12068016841F40071AC
:1017200001600120DEE7F5B2B8F1010F09D02168B0
:10173000300A08613A464946204600F013F900286D
:10174000E7D1206805610020CCE70000020001001D
:1017500070B516460D4604461EE02046FFF70EFF04
:1017600008B1012070BD681C16D0FEF737FF801B42
:10177000A84200D885B920684069C04340070BD50E
:10178000002044F8300F20216173A073216941F0DB
:10179000200121612073E4E720684069C0434007CD
:1017A000DBD4002070BD00002DE9F04798461746B5
:1017B0000D460446C1F30746DDF820902AE000BF3D
:1017C000B8F1FF3F26D0FEF709FFA0EB0901414524
:1017D00002D8B8F1000F1DD12068012E16D0806903
:1017E00025EA00000004000C12D00020B84211D1FC
:1017F000002044F8300F20216173A073216941F06B
:101800002001216120730120BDE8F0874069E7E7EE
:101810000120EBE72068012E0AD0806925EA00004C
:101820000004000C06D00020B842C9D00020EBE72D
:101830004069F3E70120F7E72DE9F047984616469F
:101840000D4604464FF000094FF0200AC1F3074748
:1018500023E020684069C043400515D42068016832
:1018600041F40071016021686FF480604861C4F840
:10187000309084F83DA084F83E90216C41F0040142
:10188000216484F83C9021E0701C06D0FEF7A6FE8F
:10189000A0EB0800B04203D816B1012F1FD021E001
:1018A0002068012F15D0806925EA00000004000C93
:1018B00018D000BF44F8309F84F80DA084F80E9033
:1018C000216941F02001216184F80C900120BDE8DC
:1018D000F087406925EA00000004000CEAD1206886
:1018E000406901E02068806925EA00000004000CDE
:1018F000AFD1ECE72DE9F041002590460E460446B5
:10190000202728E04069C043C0060CD454F8301B9F
:101910006FF01000486144F810596777A577206A86
:101920002062257714E0FEF759FEA0EB0800B042D4
:1019300000D886B920684069C04340060BD544F8FA
:10194000305F6773A573206940F020002061257324
:101950000120BDE8F08120684169C9434906D1D41E
:101960000020F6E770B516460D4604461EE02046F8
:10197000FFF704FE08B1012070BD681C16D0FEF709
:101980002DFE801BA84200D885B920684069C0435D
:1019900000060BD5002044F8300F20216173A0739E
:1019A000216941F0200121612073E4E7206840694A
:1019B000C0430006DBD4002070BD00000948084980
:1019C0000160094941600021CC22C0E902124FF4B4
:1019D0008042C0E904218161C1610162FEF708BE55
:1019E0000054004018000020801A06000EB50123A4
:1019F0004FF47A72CDE9001302920246A021074803
:101A0000FEF770FF012801D000200EBD1722044907
:101A100004A000F08DFA01200EBD00001800002087
:101A2000B32600086661696C20746F2048414C5FE2
:101A30004932435F4D656D5F5265616420696E2078
:101A4000257320616E64206C696E653A2025640DF3
:101A50000A0000000EB501234FF47A72CDE900139D
:101A600002920246A0211048FFF764F8012812D024
:101A70000D48FEF7B9FD2028FAD164230A22A021DF
:101A80000948FEF779FE0328F7D00748FEF7ACFDBA
:101A90002028FAD10EBD03B00A22044904A05DF843
:101AA00004EB00F045BA000018000020A42600084E
:101AB0006661696C20746F2048414C5F4932435F16
:101AC0004D656D5F577269746520696E20257320BE
:101AD000616E64206C696E653A2025640D0A000011
:101AE0000C4800B5816985B041F0080181618069C9
:101AF000694600F008000490012001902320009026
:101B000000200290022003900348FEF765FC05B018
:101B100000BD000000100240000C0140094808B55B
:101B2000816941F004018161816901F00401009142
:101B3000816941F008018161806900F0080000902E
:101B400008BD000000100240FEE7FEE77047704746
:101B5000FFF7C4B830B58FB028216846FEF71BFBED
:101B600014210AA8FEF717FB01210804CDE9001093
:101B70000024029402250491CDE907504FF4E010AF
:101B800009906846FFF71EFA08B172B6FEE70F200B
:101B9000CDE90A054FF48060CDE90C4002210AA886
:101BA0000E94FFF733F9002801D072B6FEE70FB0AC
:101BB00030BD704770B5446A2068406994F84110A0
:101BC000C0F3C0100025212904D118B1E5842046B6
:101BD00000F08EF82068406994F84210C0F380103D
:101BE000222904D118B1E585204600F05AF8606C2E
:101BF00040F0100060642046FFF7C1FB70BD10B5D7
:101C00000146406A096809684FF0000289062ED42F
:101C1000C28501680C3151E8003F23F4807341E82C
:101C20000034002CF5D10168143151E8003F23F055
:101C3000010341E80034002CF5D10168143151E86A
:101C4000003F23F0400341E80034002CF5D120216F
:101C500080F84210016B012909D101680C3151E86B
:101C6000003F23F0100341E80034002CF5D142631B
:101C7000016B012902D0FFF731FC10BD818DFFF708
:101C800045FB10BD10B5406A01214163016B01297C
:101C900002D0FFF724FC10BD818D4908FFF736FB09
:101CA00010BD01680C3151E8002F22F4907241E818
:101CB0000023002BF5D10168143151E8002F22F0E8
:101CC000010241E80023002BF5D1016B012909D164
:101CD00001680C3151E8002F22F0100241E8002386
:101CE000002BF5D1202180F84210002101637047BC
:101CF00001680C3151E8002F22F0C00241E80023B6
:101D0000002BF5D1202180F84110704710B50F4C01
:101D10000D48002120604FF4E130C4E90101216148
:101D20000C20E160C4E905012046FFF729FB20688B
:101D3000C16841F01001C160A4F12C012046BDE84A
:101D400010402822FFF7BCBB00380140980000205B
:101D500070B5044600680169E26821F440511143FE
:101D600001612169A0680843616908432168CA6864
:101D700041F20C639A430243CA6020684169A26938
:101D800021F44071114341611E492068884202D10B
:101D9000FFF7E2F801E0FFF7CFF800EBC00101EB3D
:101DA0000012606864218000B2FBF0F3B3FBF1F332
:101DB0006FF018067343B2FBF0F5B2FBF0F605EBDB
:101DC0008305322303EB0515B5FBF1F5B6FBF1F600
:101DD00005F0F00505EB0615B2FBF0F6B2FBF0F0EE
:101DE000B0FBF1F06FF01802504306EB800003EBFC
:101DF0000010B0FBF1F0216800F00F00284488606B
:101E000070BD00000038014038B58162044682850B
:101E1000002013466064222284F84220E56B1B4AAE
:101E2000AA62E56B1A4AEA62E56B1A4A2A63E26B18
:101E300050630A462168E06B091DFEF783FA2068AB
:101E4000016840680090206948B120680C3050E873
:101E5000001F41F4807140E80012002AF5D120688B
:101E6000143050E8001F41F0010140E80012002A40
:101E7000F5D12068143050E8001F41F0400140E8DF
:101E80000012002AF5D1002038BD0000FF1B000819
:101E9000851C0008B51B00082DE9F041984617463F
:101EA0000E460446069D27E0681C25D02DB1FEF79E
:101EB00095FBA0EB0800A8421ED920680C3050E822
:101EC000001F21F4D07140E80012002AF5D12068EB
:101ED000143050E8001F21F0010140E80012002AF0
:101EE000F5D1202084F8410084F84200002084F8D5
:101EF00040000320BDE8F0812068006836EA000059
:101F000004D00020B842CFD00020F3E70120F9E749
:101F1000054800680168C943C90604D46FF0100180
:101F2000016000F06BBB704798000020FEE70000E6
:101F30000FB4054B10B503A9044A029800F028F825
:101F400010BC5DF814FB0000D1250008140000202F
:101F50000907090E002804DB00F1E02080F80014D6
:101F6000704700F00F0000F1E02080F8141D70476A
:101F700002E008C8121F08C1002AFAD17047704752
:101F8000002001E001C1121F002AFBD170470000B0
:101F90002DE9FF4F8DB00F460546002606E02528A7
:101FA0000BD0DDE90F1290476D1C761C28780028B5
:101FB000F5D111B03046BDE8F08F0024A246A1460D
:101FC0000122EC4900E0044315F8013F203B02FAEE
:101FD00003F00842F7D128782A2810D06FF02F029A
:101FE0002878A0F13001092914D80AEB8A0102EB04
:101FF000410144F0020400EB010A6D1CF0E701CF3F
:102000005FEA000A03D544F40054CAF1000A44F020
:1020100002046D1C28782E2817D115F8010F44F002
:1020200004042A280ED06FF02F022878A0F1300186
:1020300009290AD809EB890102EB410100EB0109EA
:102040006D1CF2E757F8049B6D1C28786C280FD0A4
:1020500006DC4C2817D068280DD06A2814D104E07B
:10206000742810D07A280FD10DE044F400140AE04F
:1020700044F4801401E044F440146978814202D1B0
:1020800004F580146D1C6D1C2A786E2A1FD00CDCA0
:10209000632A31D004DC002A8BD0582A11D1A3E066
:1020A000642A68D0692A0CD165E0732A2ED004DC3A
:1020B0006F2A73D0702A04D19BE0752A6FD0782ADA
:1020C0006ED01046DDE90F129047761C50E1C4F344
:1020D0000250022806D0032809D0042801CF09D0D5
:1020E000066045E101CFF117C0E9006140E101CF91
:1020F00006803DE106703BE117F8040B8DF8000007
:1021000000208DF80100EB46012003E057F804BBE6
:102110004FF0FF3061074FF0000102D40DE008F1ED
:102120000101884649450FDA8045F8DB1BF80810A5
:102130000029F4D108E008F1010188468142FADB68
:102140001BF808100029F6D1DDE90F23AAEB0800DF
:102150008146214600F036F9304400EB080604E0E1
:10216000DDE90F121BF8010B9047B8F10108F7D217
:1021700021464846F7E00A21C4F302534FF0000B12
:102180000891022B04D001CFC117032B09D00AE01C
:10219000FF1D27F00707F7E8020108E032E01FE023
:1021A00020E000B2C117042B01D140B2C117031EB9
:1021B00071F1000307DA4FF0000CD0EB0C006CEB70
:1021C00001012D2302E0230504D52B238DF82430B3
:1021D000012303E0E30701D02023F7E7984658E006
:1021E0000A2110E010210EE010204FF0000B0890A3
:1021F0000CE010214FF0000B44F004044FF00809EC
:10220000089103E008214FF0000B0891C4F302533A
:10221000022B04D001CF0021032B06D006E0FF1DC6
:1022200027F00707F7E8020103E080B2042B00D192
:10223000C0B24FF0000823072BD5702A07D0DDF875
:1022400020C08CF0100C5CEA0B0C05D00EE0402393
:102250008DF82430012308E050EA010306D0302332
:102260008DF824308DF8252002239846DDF820C013
:102270008CF0080C5CEA0B0C0BD150EA010301D185
:10228000630706D530238DF824304FF00108A9F1FB
:102290000109582A04D038A20B9208AA0A920BE02E
:1022A0003AA2F9E75B46089AFDF780FF0B9B9B5C1F
:1022B0000A9A521E0A92137050EA0102F2D10A9849
:1022C000ADEB000000F1200B600702D524F4803450
:1022D00001E04FF00109D94502DDA9EB0B0000E058
:1022E000002000EB0B0141440890AAEB010AE00337
:1022F00006D4DDE90F232146504600F063F806447A
:102300004FF0000908E009A911F80900DDE90F12F2
:10231000904709F10109761CC145F4DBE0030CD5B7
:10232000DDE90F232146504600F04CF8064404E056
:10233000DDE90F1230209047761C0899481E08905E
:102340000029F5DC08E00A980A990078491C0A91EE
:10235000DDE90F129047761CBBF10001ABF1010BD8
:10236000F1DC21465046DDE90F2300F019F8064460
:102370006D1C1BE609280100303132333435363705
:1023800038396162636465660000000030313233C1
:102390003435363738394142434445460000000061
:1023A0002DE9F041044600251E461746880404D452
:1023B00005E039462020B0476D1C641EF9D528463B
:1023C000BDE8F0812DE9F041044600251E46904607
:1023D000C80301D5302700E02027880404D505E094
:1023E00041463846B0476D1C641EF9D52846BDE805
:1023F000F081000008B569460020FFF7F7FA9DF864
:10240000001009A0FFF794FD9DF80010481E042855
:1024100003D309A0FFF78CFD08BD10480160694691
:102420000020FFF717FB08BD636D64203D20307866
:10243000253032780D0A0000636D643A307825301B
:10244000325820746F20736D616C6C206F72207431
:102450006F206C617267650D0A00000000000020AB
:1024600000F0A0F8334E344C4FF4FA753068012870
:1024700010D0022819D0032822D0042831D00122FC
:1024800020212046FEF7A4F8012211462046FEF73F
:102490009FF848E0002220212046FEF799F82846C0
:1024A000FDF788FF0122202114E0002201212046AF
:1024B000FEF78EF82846FDF77DFF0122114609E060
:1024C000002202212046FEF783F82846FDF772FF1E
:1024D000012202212046FEF77BF82846FDF76AFF1D
:1024E000C4E7002220212046FEF772F82846FDF7B7
:1024F00061FF012220212046FEF76AF80022012117
:102500002046FEF765F82846FDF754FF01221146E4
:102510002046FEF75DF8002202212046FEF758F81B
:102520002846FDF747FF012202212046FEF750F81A
:102530009CE7000000000020000C014008B500F0FE
:1025400053F801788DF800100CA0FFF7F1FC00F0B3
:102550004FF8012806D900F04BF801460BA0FFF711
:10256000E7FC08BD9DF80000411E0429F9D20C4982
:10257000086069460020FFF76DFA08BD636D6420AE
:102580003D203078253032780D0A000073697A6575
:102590003A256420746F6F206C6F6E67200D0A00FF
:1025A0000000002010B5094C012220212046FEF732
:1025B0000FF8012211462046FEF70AF820460122B4
:1025C000BDE810400221FEF703B80000000C0140F6
:1025D00013B54FF47A73012269460248FEF780FF73
:1025E00000981CBD98000020004870476C00002037
:1025F000014890F8280070476C00002010B5104882
:10260000FEF785FE0E484830006840680022C0F1A1
:102610002800C1B20A482C3880F8281042540246DB
:1026200090F8281007A0FFF783FC054928222C39D1
:102630000348FEF745FFBDE81040FFF77FBF0000ED
:1026400098000020726563762064617461206C6577
:102650006E6774683A2025642C20696E666F3A2094
:1026600025730D0A00000000FEF740FBFFF772FA29
:10267000FFF754FAFFF7A2F9FFF748FBFFF730FA2C
:1026800004A0FFF755FCFFF7B5FE00BFFFF7E8FE1B
:10269000FCE700005374617274204D43557E7E7ECA
:1026A0000D0A00004949435F57726974655F4279BA
:1026B0007465004949435F526561645F427974659E
:1026C00000010202030405060708090A0B0C0D0E9F
:1026D0000F101000000000000000000102030406BB
:1026E0000708090000000001020304000C2700088D
:1026F0000000002018000000701F000824270008B8
:102700001800002010050000801F000801000000D4
:102710000100000010000000000000000024F40090
:0427200000000000B5
:0400000508000131BD
:00000001FF
