:020000040800F2
:100000006004002045010008830E0008BF0D0008B1
:10001000810E0008B1010008EF0F00080000000089
:10002000000000000000000000000000870E000833
:10003000B301000800000000850E0008890E0008CA
:100040005F0100085F0100085F0100085F01000810
:100050005F0100085F0100085F0100085F01000800
:100060005F0100085F0100085F0100085F010008F0
:100070005F0100085F0100085F0100085F010008E0
:100080005F0100085F0100085F0100085F010008D0
:100090005F0100085F0100085F0100085F010008C0
:1000A0005F0100085F0100085F0100085F010008B0
:1000B000ED0E00085F0100085F0100085F01000805
:1000C0005F0100085F0100085F0100085F01000890
:1000D0005F0100085F0100085F0100085F01000880
:1000E0005F0100085F0100085F0100085F01000870
:1000F0005F0100085F0100085F0100085F01000860
:100100005F0100085F0100085F0100085F0100084F
:100110005F0100085F0100085F0100085F0100083F
:100120005F0100085F0100085F0100085F0100082F
:10013000DFF80CD000F02AF8004800473110000822
:10014000600400200648804706480047FEE7FEE7B7
:10015000FEE7FEE7FEE7FEE7FEE7FEE7FEE7FEE777
:10016000EB0E000831010008D2B201E000F8012BCB
:10017000491EFBD270470022F6E710B513460A4627
:1001800004461946FFF7F0FF204610BD064C074D08
:1001900006E0E06840F0010394E807009847103457
:1001A000AC42F6D3FFF7C8FF98100008B81000085B
:1001B000FEE7704772B6FEE72DE9F84FDFF8C89109
:1001C0000024A9F1040B23460F2709F1040AABF11F
:1001D000040ED1E00125A54006EA0502AA4276D127
:1001E000DFF8A8C14E68A6EB0C0866452BD00DDCE5
:1001F000032E34D005DC36B3012E19D0022E2FD1B8
:100200001BE0112E16D0122E2AD119E0B8F5881F46
:1002100019D006DCB8F5803F15D0B8F5801F1FD186
:1002200011E0B8F5001F0ED0B8F5041F18D10AE090
:10023000CB6815E0CB681B1D12E0CB6808330FE0DC
:10024000CB680C330CE08B682BB1012B4FF008030B
:1002500003D0456104E0042302E0056100E00023CF
:10026000FF2A01D8064601E000F104064FEA8405A2
:1002700001D9A5F12005D6F8008007FA05FC28EA87
:100280000C0803FA05F548EA0508C6F800804D6831
:10029000ED0070D53E4DAE6946F00106AE61AD6928
:1002A00024F0030605F0010500953A4D06EB050C18
:1002B000DCF80850A607360F07FA06F825EA080505
:1002C000DFF8D480404503D14FF0000825E052E02C
:1002D000DFF8C880404502D14FF001081DE0DFF88B
:1002E000C080404502D14FF0020816E0DFF8B4802C
:1002F000404502D14FF003080FE0DFF8AC804045E5
:1003000002D14FF0040808E0DFF8A080404502D198
:100310004FF0050801E04FF0060808FA06F848EA31
:100320000508CCF808804D68D9F80060ED024D460C
:1003300001D5164300E096432E604D68DAF8006060
:10034000AD02554601D5164300E096432E604D6838
:10035000DBF80060AD035D4601D5164300E096432F
:100360002E604D68DEF80060ED03754601D516433A
:1003700000E096432E60641C0A681646E2407FF453
:1003800029AFBDE8F88F00000804014000001110FB
:10039000001002400000014000080140000C014034
:1003A000001001400014014000180140001C0140F1
:1003B000C26821EA02030A4043EA02410161704730
:1003C0000AB1016170470904FBE700000148806839
:1003D0007047000004000020024881680278114440
:1003E0008160704704000020074810B5016841F0A3
:1003F00010010160032000F075F80F2000F006F8EE
:1004000000F024F8002010BD0020024070B50D4D12
:1004100004464FF47A712878B1FBF0F00A49096874
:10042000B1FBF0F000F0BCFA48B9102C07D2002262
:100430002146501E00F036F800206C6070BD01208F
:1004400070BD000004000020100000200C4808B51A
:10045000816941F001018161816901F0010100912F
:10046000C16941F08051C161C06900F080500090C5
:100470000448416821F0E06141F00071416008BD2D
:100480000010024000000140002809DB00F01F02BC
:10049000012191404009800000F1E020C0F80011E6
:1004A00070470000F0B40E4B1B680C46C3F30223E8
:1004B000C3F10705042D00D90425191D072901D210
:1004C000002300E0DB1E012606FA05F1491E21404B
:1004D00099409E40761E16403143F0BC00F088BD26
:1004E0000CED00E0064900F0070208684FF6FF0334
:1004F000184040EA0220034A104308607047000099
:100500000CED00E00000FA052DE9F0470F4605006C
:1005100061D0434E306800F00700B84209D230681D
:1005200020F0070038433060306800F00700B84220
:1005300051D128683B4C810712D5400703D560682C
:1005400040F4E06060602878000703D5606840F4FC
:10055000605060606068A96820F0F0000843606047
:100560002878C00728D06868012810D021680228A0
:1005700010D0890700292EDA616821F003010143B8
:100580006160FFF723FF804641F288390DE0216862
:100590008903EFE78901EDE7FFF718FFA0EB0801FA
:1005A000494502D90320BDE8F0876068696800F01A
:1005B0000C00B0EB810FEFD1306800F00700B842BB
:1005C0000BD9306820F0070038433060306800F005
:1005D0000700B84201D00120E5E72878400705D59B
:1005E0006068E96820F4E0600843606028780007EC
:1005F00006D56068296920F4605040EAC100606057
:1006000000F018F86168084AC1F30311515CC84052
:100610000649086006480068FFF7F8FE0020C2E7B8
:100620000020024000100240861000081000002048
:10063000080000200E4A51680E4801F00C03042BFC
:1006400011D0082B0FD10C48C1F38343C903C05C00
:100650000AD55168084AC1F34041921E515C054ACF
:100660005043B0FBF1F07047044948437047000025
:100670000010024000127A007610000800093D00C8
:100680002DE9F84F040070D02078C04DC00749D044
:100690006868C0F38100012807D06868C0F3810052
:1006A000022809D16868C00306D52868800339D5B7
:1006B00060680028E7D035E06068B0F5803F0BD077
:1006C00010B1B0F5A02F11D0286820F48030286038
:1006D000286820F4802002E0286840F480302860F8
:1006E000606890B1FFF772FE06460AE0286840F4A1
:1006F00080202860F0E700BFFFF768FE801B6428B9
:1007000073D828688003F7D50CE0FFF75FFE064634
:1007100005E000BFFFF75AFE801B6428F0D8286868
:100720008003F7D420789A4E80074FF001094FF0EC
:10073000000839D5686810F00C0F07D06868C0F35E
:100740008100022809D16868C00306D428688007A0
:1007500014D52069012808D110E02069B0B1C6F88D
:100760000090FFF733FE074605E00AE1FFF72EFE93
:10077000C01B0228C4D828688007F7D5286861699B
:1007800020F0F80040EAC10028600DE0C6F80080C3
:10079000FFF71CFE074604E0FFF718FEC01B022807
:1007A00023D828688007F7D4207800072CD579480B
:1007B000A169D9B1C0F80090FFF708FE074604E030
:1007C000FFF704FEC01B02280FD8686A8007F7D520
:1007D00071484FF4FA510068B0FBF1F0009000BF8F
:1007E0000098411E0091FAD20EE080E0C0F800802F
:1007F000FFF7ECFD074604E0FFF7E8FDC01B022809
:1008000075D8686A8007F7D42078400760D5E86912
:100810000027C00008D4E86940F08050E861E8692A
:10082000012700F0805000905C480168C90513D48E
:100830000168834641F480710160FFF7C7FD82467D
:1008400006E000BFFFF7C2FDA0EB0A0064284ED807
:10085000DBF80000C005F5D5E06801280AD008B132
:10086000052813D0286A20F001002862286A20F0A9
:10087000040002E0286A40F001002862E06841F2CA
:10088000883B98B1FFF7A2FD82460BE0286A40F052
:1008900004002862EEE700BFFFF798FDA0EB0A0115
:1008A00059455AD8286A8007F6D50CE0FFF78EFD27
:1008B000824605E0FFF78AFDA0EB0A0159454CD8B6
:1008C000286A8007F6D41FB1E86920F08050E861FB
:1008D000E06988B36968C1F38101022944D0022824
:1008E000C6F8608004D0FFF771FD044638E034E0BC
:1008F000FFF76CFD074604E0FFF768FDC01B022808
:100900002BD828688001F7D4206AB0F5803F05D144
:100910006868A16820F4003008436860D4E90801E1
:100920000843696821F4741108436860C6F8609050
:10093000FFF74CFD044606E025E000BFFFF746FD4B
:10094000001B022809D828688001F7D51BE000BFEA
:10095000FFF73CFD001B022802D90320BDE8F88FF9
:1009600028688001F4D40EE00128F7D06868226A74
:1009700000F48031914204D1616A00F47010884221
:1009800001D00120EAE70020E8E700000010024063
:1009900000004242800442421000002000700040EB
:1009A00010B5401EB0F1807F01D3012010BD4FF083
:1009B000E02460610F21601700F01AFB0020A061A5
:1009C00007202061002010BD7047704770B590F877
:1009D0003C20012A2CD0012480F83C40022280F8DF
:1009E0003D2003685A689D6822F070060A68324309
:1009F0005A60104B02689A420ED00F4B9A420BD0AD
:100A0000B2F1804F08D00D4B9A4205D00C4B9A4260
:100A100002D00C4B9A4204D1496825F08003194357
:100A2000916080F83D40002180F83C10084670BD80
:100A3000022070BD002C0140003401400004004041
:100A400000080040000C004010B5040003D094F8EA
:100A50003D0010B107E0012010BD002084F83C00EB
:100A6000204600F01FF8022084F83D00211D206878
:100A700000F042FA012084F8460084F83E0084F831
:100A80003F0084F8400084F8410084F8420084F874
:100A9000430084F8440084F8450084F83D000020B9
:100AA00010BD000008B50068B0F1804F12D10A48AF
:100AB000C16941F00101C161C069002200F001007B
:100AC000009011461C20FFF7EDFCBDE808401C20FB
:100AD000FFF7DABC08BD00000010024090F83D109E
:100AE000012901D001207047022180F83D100168E2
:100AF000CA6842F00102CA6000680E4988420ED0FE
:100B00000D4988420BD0B0F1804F08D00B49884284
:100B100005D00B49884202D00A49884204D1816835
:100B200001F00701062903D0016841F001010160CD
:100B300000207047002C01400034014000040040B8
:100B400000080040000C004070B5044690F83C00DE
:100B50000025012817D0012684F83C60022084F883
:100B60003D002068826822F0770222F47F42826092
:100B70000868502838D00DDC20284FD005DC90B311
:100B8000102811D14AE0022070BD302846D04028FC
:100B90000AD13BE060282FD070280DD0B0F5805FDF
:100BA00003D0B0F5005F12D0012584F83D6000202D
:100BB00084F83C00284670BDCB68D1E9012120684B
:100BC00000F0E0F92068816841F0770109E0CB6826
:100BD000D1E90121206800F0D5F92068816841F44D
:100BE00080418160E1E719E0CA684968206800F047
:100BF000DBF95021206806E0CA684968206800F0E7
:100C0000E4F96021206800F0C7F9CEE7CA684968B6
:100C1000206800F0C9F940212068F4E72268014605
:100C20001046F0E7704770B50446006801694FF060
:100C30000005C943890715D4C168C943890711D480
:100C4000E91E016101202077206880698007204625
:100C500002D0FFF7E7FF04E000F098F8204600F02C
:100C600096F8257720680169C943490717D4C168F8
:100C7000C943490713D46FF00401016102202077B2
:100C80002068806910F4407F204602D0FFF7CAFF39
:100C900004E000F07BF8204600F079F82577206822
:100CA0000169C943090716D4C168C943090712D4A9
:100CB0006FF008010161042020772068C069800777
:100CC000204602D0FFF7AEFF04E000F05FF82046B8
:100CD00000F05DF8257720680169C943C90617D47B
:100CE000C168C943C90613D46FF01001016108201F
:100CF00020772068C06910F4407F204602D0FFF7BB
:100D000091FF04E000F042F8204600F040F825771B
:100D100020680169C943C90708D1C168C943C90727
:100D200004D1891E0161204600F032F82068016973
:100D3000C943090609D4C168C943090605D46FF03F
:100D4000800101612046FFF73FFE20680169C94329
:100D5000490609D4C168C943490605D46FF040016A
:100D60000161204600F02AF820680169C94389061C
:100D70000BD4C168C943890607D46FF02001016113
:100D80002046BDE87040FFF720BE70BD7047704739
:100D90000068B0F1804F0CD106480168491C016021
:100DA000B1F57A7F05D10021016002210248FFF7E9
:100DB000FFBA704700000020000C01407047FEE7BA
:100DC0000C4800B5816985B041F0080181618069F6
:100DD000694600F008000490012001902320009053
:100DE00000200290022003900348FFF7E5F905B0C8
:100DF00000BD000000100240000C0140054808B58D
:100E0000816941F004018161806900F00400009073
:100E100008BD00000010024010B586B0002417483D
:100E2000009401940294039404944FF0804105943B
:100E300001604721C0E9011440F2E731C0E9031421
:100E400080218161FFF700FE08B1FFF7B3F94FF48D
:100E50008050009069460948FFF776FE08B1FFF719
:100E6000A9F9049404A905480594FFF7AFFD0028EB
:100E700001D0FFF79FF906B010BD0000140000205C
:100E8000FEE7FEE770477047FFF7A6BA30B58FB0B0
:100E900028216846FFF76FF914210AA8FFF76BF9BC
:100EA00001210804CDE900100024029402250491D8
:100EB000CDE907504FF4E01009906846FFF7E0FBDA
:100EC00008B172B6FEE70F20CDE90A054FF4806045
:100ED000CDE90C4002210AA80E94FFF715FB00286B
:100EE00001D072B6FEE70FB030BD70470148FFF782
:100EF0009ABE000014000020F0B502681C4B1D4D86
:100F00001D4E1E4F1E4C4FF0804C984209D0A042FF
:100F100007D0604505D0A84203D0B04201D0B84206
:100F200004D122F0700E4A6842EA0E02984209D0BB
:100F3000A04207D0604505D0A84203D0B04201D0FE
:100F4000B84203D122F44075CA682A434D6922F0A1
:100F500080022A4302608A68C2620A6882629842FA
:100F600001D0A04201D10969016301214161F0BDB5
:100F7000002C01400004004000080040000C00402C
:100F80000034014010B5846842EA032224F47F440F
:100F90000A432243826010BD826822F070020A4335
:100FA00042F007018160704710B5036A046A24F0BB
:100FB00001040462846924F0F00444EA021423F07A
:100FC0000A020A438461026210BD10B5036A046A12
:100FD00024F010040462846923F0A00324F4704414
:100FE00044EA023243EA01118261016210BDFEE768
:100FF0000907090E002804DB00F1E02080F8001446
:10100000704700F00F0000F1E02080F8141D7047D9
:1010100002E008C8121F08C1002AFAD170477047C1
:10102000002001E001C1121F002AFBD1704700001F
:10103000FFF7DAF9FFF72AFFFFF7E0FEFFF7ECFE14
:10104000FFF7BEFE094C012220212046FFF7B8F928
:10105000012211462046FFF7B3F901220221204662
:10106000FFF7AEF90248FFF739FDFEE7000C01403B
:1010700014000020010202030405060708090A0BF8
:101080000C0D0E0F10100000000000000000010207
:101090000304060708090000B8100008000000203B
:1010A0001400000010100008CC10000814000020EC
:1010B0004C040000201000080000000001000000A7
:0C10C00010000000000000000024F400FC
:0400000508000131BD
:00000001FF
